:1000000015C600000C94AC230C94D7230C94022446
:100010000C942D240C9458240C9483240C94AE241A
:100020000C94D92434C6000032C6000030C600004B
:100030002EC600002CC600002AC6000028C60000FC
:1000400026C6000024C6000022C6000020C600000C
:100050001EC600001CC600001AC600000C94042531
:1000600016C600000C94F2210C94282210C6000041
:100070000EC600000CC600000AC6000008C600003C
:1000800006C6000004C6000002C6000000C600004C
:10009000FEC50000FCC50000FAC500000C94461C1B
:1000A000F6C50000F4C50000F2C50000F0C5000070
:1000B000EEC50000ECC50000EAC50000E8C5000080
:1000C000E6C50000E4C50000E2C50000E0C5000090
:1000D000DEC50000DCC50000DAC50000D8C50000A0
:1000E000D6C500008623502358236423712392230E
:1000F0009F233F264226312635263B267926462653
:100100004A265026542658265E26622666267926DA
:100110006C26702674261F1C1F1E1F1E1F1F1E1FED
:100120001E1F5353443133303620616C6C6F636152
:1001300074696F6E206661696C6564000000000080
:10014000003E5B4F5B3E3E6B4F6B3E1C3E7C3E1C5D
:10015000183C7E3C181C577D571C1C5E7F5E1C00A3
:10016000183C1800FFE7C3E7FF0018241800FFE75A
:10017000DBE7FF30483A060E2629792926407F051D
:100180000507407F05253F5A3CE73C5A7F3E1C1C33
:1001900008081C1C3E7F14227F22145F5F005F5FF3
:1001A00006097F017F006689956A606060606094DF
:1001B000A2FFA29408047E040810207E20100808E4
:1001C0002A1C08081C2A08081E101010100C1E0CEF
:1001D0001E0C30383E3830060E3E0E060000000081
:1001E0000000005F00000007000700147F147F1468
:1001F000242A7F2A122313086462364956205000AD
:1002000008070300001C2241000041221C002A1C98
:100210007F1C2A08083E0808008070300008080883
:100220000808000060600020100804023E514945A3
:100230003E00427F400072494949462141494D33C1
:100240001814127F1027454545393C4A4949314128
:10025000211109073649494936464949291E0000F6
:10026000140000004034000000081422411414144B
:100270001414004122140802015909063E415D5937
:100280004E7C1211127C7F494949363E4141412240
:100290007F4141413E7F494949417F090909013E6A
:1002A000414151737F0808087F00417F4100204091
:1002B000413F017F081422417F404040407F021CA3
:1002C000027F7F0408107F3E4141413E7F090909BA
:1002D000063E4151215E7F09192946264949493286
:1002E00003017F01033F4040403F1F2040201F3F4C
:1002F0004038403F631408146303047804036159D1
:10030000494D43007F414141020408102000414112
:10031000417F0402010204404040404000030708BE
:100320000020545478407F284444383844444428BA
:10033000384444287F385454541800087E09021861
:10034000A4A49C787F0804047800447D40002040E9
:10035000403D007F1028440000417F40007C04782D
:1003600004787C080404783844444438FC18242475
:100370001818242418FC7C080404084854545424F5
:1003800004043F44243C4040207C1C2040201C3C72
:100390004030403C44281028444C9090907C446469
:1003A000544C4400083641000000770000004136FC
:1003B000080002010204023C2623263C1EA1A16182
:1003C000123A4040207A38545455592155557941B4
:1003D0002254547842215554784020545579400C89
:1003E0001E5272123955555559395454545939556C
:1003F0005454580000457C410002457D42000145AF
:100400007C407D1211127DF0282528F07C54554542
:10041000002054547C547C0A097F493249494932AE
:100420003A4444443A324A4848303A4141217A3ABF
:1004300042402078009DA0A07D3D4242423D3D408B
:1004400040403D3C24FF2424487E4943662B2FFC3A
:100450002F2BFF0929F620C0887E090320545479E8
:10046000410000447D413048484A32384040227AB9
:10047000007A0A0A727D0D19317D2629292F282636
:100480002929292630484D4020380808080808083E
:100490000808382F10C8ACBA2F102834FA00007B97
:1004A000000008142A142222142A140855005500AA
:1004B00055AA55AA55AAFF55FF55FF000000FF0099
:1004C000101010FF00141414FF001010FF00FF1094
:1004D00010F010F0141414FC001414F700FF0000C6
:1004E000FF00FF1414F404FC141417101F10101F45
:1004F000101F1414141F00101010F0000000001F33
:10050000101010101F10101010F010000000FF103D
:100510001010101010101010FF10000000FF140039
:1005200000FF00FF00001F10170000FC04F414146B
:100530001710171414F404F40000FF00F714141437
:1005400014141414F700F7141414171410101F10B7
:100550001F141414F4141010F010F000001F101FDA
:100560000000001F14000000FC140000F010F01048
:1005700010FF10FF141414FF141010101F000000BF
:1005800000F010FFFFFFFFFFF0F0F0F0F0FFFFFFC3
:100590000000000000FFFF0F0F0F0F0F384444381A
:1005A00044FC4A4A4A347E02020606027E027E0269
:1005B00063554941633844443C04407E201E200674
:1005C000027E020299A5E7A5991C2A492A1C4C72B1
:1005D00001724C304A4D4D303048784830BC625A38
:1005E000463D3E494949007E0101017E2A2A2A2AC8
:1005F0002A44445F444440514A444040444A5140A4
:100600000000FF0103E080FF000008086B6B083664
:1006100012362436060F090F0600001818000000D5
:100620001010003040FF0101001F01011E00191DC4
:100630001712003C3C3C3C00000000002200FF215F
:1006400000000103070F1F3F7F0080C0E0F0F8FCAF
:10065000FEDB40A4A62EAF2000A1C8D300408DAE83
:10066000D580A8000060000000000000000000002D
:1006700000000000E000000000000000000000009A
:10068000000001E000000000000000000000000089
:100690000001F00000000000000000000000000069
:1006A00003F0000000000000000000000000000750
:1006B000F00000000000000000000000000007F84B
:1006C000000000000000000000000000000FF80023
:1006D000000003C0007E000001E0007F0FF8000072
:1006E0000003C000FE000001E000FFEFF800000082
:1006F00003C000FE000001E000FFFFF8000000035F
:10070000C000F00000000F007FFE7FC0000003C0AB
:1007100000F00000000F003FFE7FF83FF1FBCFFC30
:10072000FEF3BC3DEFE01FFE7FFF7FFBFFDFFEFE21
:10073000FFBC3DEFE01FC6FFFF7FFBFFDFFEFEFFBC
:10074000BC3DEFE00FE3C7FE787BC3DE1EF0FFBCCD
:100750003DEF0007FF87FC787BC3DE1EF0F83C3DD1
:10076000EF0001FFFFF0007BC3C01EF0F03C3DEF47
:100770000001F37FE03FFBC3CFFEF0F03C3DEF0014
:1007800003E33F807FFBC3DFFEF0F03C3DEF00075B
:10079000E73C00787BC3DE1EF0F03C3DEF0007FF36
:1007A000BE00787BC3DE1EF0F03C3DEF0007FFFE8D
:1007B00000787BC3DE1EF0F03C3DEF000FFFFE0033
:1007C0007FFBFFDFFEF0F03FFDEFE00FFFFF007F5C
:1007D000FBFFDFFEF0F03FFDEFE00FF9FF003E7999
:1007E000F9CF9EF0F01F3DE7E01FF1FF0000000091
:1007F00000000000000000001F80FF007FFFFFFFDF
:10080000FFFFFFFFFFFFE01C007F007FFFFFFFFEF9
:10081000B46D888D18E000001F007FFFFFFFFE957C
:10082000AD7DB577E000000F007FFFFFFFFEA5ADB7
:100830009D8D19E0000006007FFFFFFFFEB5ADEDC6
:10084000B57EE00000000000018000000000000014
:10085000000000038000000000000000000007C04E
:1008600000000000000000000007C00000000000C1
:10087000000000000FC00000000000000000001F8A
:10088000E00000000000000000001FE00000000089
:1008900000000000003FE000000000000000000039
:1008A0003FF00000000000000000007FF0000000AA
:1008B000000000001FF87FF0000000000000003F73
:1008C000FE7FF0000000000000003FFF7FF000000E
:1008D00000000000001FFFFBE0000000000000001F
:1008E0000FFFF9FFC00000000000000FFFF9FFF844
:1008F00000000000000007FFF1FFFF000000000003
:100900000003FC73FFFF80000000000001FE3FFFBA
:10091000FF80000000000000FF1E0FFF000000002D
:100920000000007FFE1FFC000000000000003FFFF1
:10093000FFF8000000000000000FDFFFE0000000F3
:10094000000000001F19FFC0000000000000003F71
:100950003CFF00000000000000007E7CF80000006A
:1009600000000000007FFE7C00000000000000008E
:10097000FFFFFC0000000000000000FFFFFE000081
:10098000000000000000FFFFFE000000000000006B
:1009900001FFEFFE0000000000000001FFCFFE009D
:1009A00000000000000003FF07FE00000000000040
:1009B0000003FC07FE0000000000000003F003FE3F
:1009C00000000000000000018000FE0000000000A8
:1009D00000000000007E0000000000000000000099
:1009E0003E000000000000000000000C00000000BD
:1009F0000000078000FC000003C000000007800129
:100A0000FC000003C0000000078001FC000003C0E0
:100A1000000000078001E00000001E0000000780C9
:100A200001E00000001E007FE3F79FF9FDE7787BFF
:100A3000DFC0FFF7FFBFFDFDFF787BDFC0FFF7FFE3
:100A4000BFFDFDFF787BDFC0F0F787BC3DE1FF789D
:100A50007BDE00F0F787BC3DE1F0787BDE0000F73D
:100A600087803DE1E0787BDE007FF7879FFDE1E056
:100A7000787BDE00FFF787BFFDE1E0787BDE00F0EA
:100A8000F787BC3DE1E0787BDE00F0F787BC3DE115
:100A9000E0787BDE00F0F787BC3DE1E0787BDE00AC
:100AA000FFF7FFBFFDE1E07FFBDFC0FFF7FFBFFD0A
:100AB000E1E07FFBDFC07CF3F39F3DE1E03E7BCFD5
:100AC000C00000000000000000000000FFFFFFFF6A
:100AD000FFFFFFFFFFFFC0FFFFFFFFFD68DB111AF5
:100AE00031C0FFFFFFFFFD2B5AFB6AEFC0FFFFFF86
:100AF000FFFD4B5B3B1A33C0FFFFFFFFFD6B5BDB72
:100B00006AFDC000000A0B02090C0D0E0807030461
:100B100001000000000000000000000000000000D4
:100B200000000000000000000000000000000012B3
:100B30001110000000000000000000000000000094
:100B40000000000000000000000102102020080842
:100B5000102040102040800201020108040201011F
:100B60000204081020408080402010080402018008
:100B7000040201804020100804020108040201015F
:100B80000204081020408001020408102040800563
:100B9000050505070508080808020202020A0A08F6
:100BA000080404040401010101010101010303031C
:100BB0000303030303040707070C0C0C0C0C0C0CB9
:100BC0000C0202020206060606060606060B0B0BC0
:100BD0000B0B0B0B0B000020002300260029002C20
:100BE000002F00320000010000030106010901008E
:100BF000002200250028002B002E003100340002C6
:100C0000010000050108010B01000021002400275C
:100C1000002A002D0030003300010100000401070C
:100C2000010A01009B09D31E5A22CA0911241FBEC2
:100C3000CFEFD1E2DEBFCDBF00E00CBF12E0A0E0FD
:100C4000B2E0E4E5F5E500E00BBF02C007900D92CD
:100C5000AC3BB107D9F724E0ACEBB2E001C01D9288
:100C6000A03BB207E1F716E0C5E1D6E000E006C020
:100C700021970109802FFE010E942928C231D10746
:100C800080E00807A9F70E9488220C94992AB8C925
:100C9000DC01ED91FC910190F081E02D1994DB01D4
:100CA000A05DB74030E0E6E1F1E081E0841730F488
:100CB0009491290F311D8F5F3196F8CF423029F47E
:100CC000CD0183709927892BA9F06D5C77407695CB
:100CD0006795769567954DE651E0A49FC001A59F65
:100CE000900DB49F900D1124860F971F0197820FCE
:100CF000931F08952F5F3F4FE8CF1F93CF93DF934C
:100D0000FC01C681D581148160817181238142817A
:100D1000C6DF9C01A8E1B0E00E9431289B01AC0134
:100D2000210F311D411D511DACE3B0E00E94402850
:100D30009B01AC012D0F311D411D511D0E9440280A
:100D4000DC01CB018C0F911DA11DB11DBC01CD019A
:100D500060597A4C8249974CDF91CF911F91089549
:100D6000CF93DF93D62FC42F68E670E080EB93E03B
:100D70000E945C1E6D2F80EB93E00E94021E6C2F80
:100D800080EB93E00E94021E80EB93E0DF91CF9115
:100D90000C94D11EAF92BF92CF92DF92EF92FF924E
:100DA0000F931F93CF93DF93CDB7DEB72E970FB678
:100DB000F894DEBF0FBECDBF7C018B0168E670E00A
:100DC00080EB93E00E945C1E60E070E080EB93E0BB
:100DD0005FDF80EB93E00E94D11E47E050E068E6C1
:100DE00070E080EB93E00E94CF1E80EB93E00E94C6
:100DF000741D892BD1F35E012FE0A20EB11CCE0130
:100E000001966C0180EB93E00E947C1D982F9295D7
:100E10009F708F70EAE09E9F800D112490E0F50195
:100E2000929382935F01EC15FD0561F780EB93E0EF
:100E30000E94D11E89819A818053984FF801918335
:100E400080838B8182838D8183838F818783898552
:100E500084838B8585838D858683C8014EDFF80169
:100E600060877187828793878CE0D70101900D920C
:100E70008A95E1F7C7012E960FB6F894DEBF0FBE34
:100E8000CDBFDF91CF911F910F91FF90EF90DF9039
:100E9000CF90BF90AF900895CF93C62F68E670E0D3
:100EA00080EB93E00E945C1E6C2F80EB93E00E942D
:100EB000021E80EB93E00E94D11E41E050E068E604
:100EC00070E080EB93E00E94CF1E80EB93E00E94E5
:100ED000741D892BD1F380EB93E00E947C1DC82FF9
:100EE00080EB93E00E94D11E8C2FCF9108950F9339
:100EF0001F93CF93DF93EC01162F042F6EE0CCDF0E
:100F0000002311F0806401C08F7B482F112311F062
:100F10004B7701C040686EE0CE01DF91CF911F9109
:100F20000F911ECFCF93DF93EC0180EB93E00E94F3
:100F3000401E40E061E0CE01DADF80ED97E099836A
:100F4000888381E08A838B831C821D821E8286E0D7
:100F50008F8380E795E3ADE6B8E388879987AA8712
:100F6000BB8781E0DF91CF9108950E944E25609369
:100F7000BC027093BD028093BE029093BF0281E0D9
:100F80008093DF0268E172E086E094E00C9428230D
:100F90008EBD00000DB407FEFDCF8EB508950F93F2
:100FA00026E040E052EC61E070E086E094E00E94D0
:100FB0008F2180913A03882399F02FB7F89480917C
:100FC0003A03813059F48DB3809338039DB38091F7
:100FD0003903809589238DBB2FBF02C0209338032E
:100FE00080E58CBD1DBC0E9478198CEE92E09ADFE2
:100FF00001E021E04CE362E088EF92E00E94EB1216
:10100000811107C062E271E086E094E00E9408234B
:10101000FFCF67E38CEC92E00E945D1762E083E013
:101020000E947A2641E050E065EB77E081E00F9185
:101030000C943923CF92DF92EF92FF920F931F937C
:10104000CF93DF93CDB7DEB72C970FB6F894DEBF02
:101050000FBECDBF8C010E944E25C090C402D0901F
:10106000C502E090C602F090C702AB01BC014C196A
:101070005D096E097F09809106029091070297FD34
:10108000019695958795092E000CAA0BBB0B481766
:1010900059076A077B07C0F00E944E256093C4027F
:1010A0007093C5028093C6029093C7026CEE72E003
:1010B000CE0101966FDE8CE0FE013196A0EEB2E02B
:1010C00001900D928A95E1F70E944E25C090BC02D6
:1010D000D090BD02E090BE02F090BF02AB01BC0117
:1010E0004C195D096E097F092091060230910702B3
:1010F000E5E0E29FC001E39F900D1124092E000C52
:10110000AA0BBB0B481759076A077B0710F0109210
:10111000DF026EEA72E0C8010E944E276091E4028D
:10112000C8010E94AF2767E272E0C8010E948E27C3
:101130006091E502C8010E94AF2767E272E0C80132
:101140000E948E276091E602C8010E94AF27C80165
:101150002C960FB6F894DEBF0FBECDBFDF91CF91B6
:101160001F910F91FF90EF90DF90CF9008950F9314
:101170001F93CF93DF9300D000D0CDB7DEB788EFB9
:1011800092E00E94CD1262E088EF92E0A2D781E067
:1011900090E090930B0380930A039093090380934C
:1011A0000803109205031092040310920703109293
:1011B00006038091DF02882321F0CE0101963ADFF9
:1011C000A0C00E944E250091C0021091C102209142
:1011D000C2023091C302AB01BC01401B510B620B38
:1011E000730B8091060290910702092E000CAA0B46
:1011F000BB0B481759076A077B0708F46FC00E94AA
:101200004E256093C0027093C1028093C2029093F6
:10121000C30260E08CEC92E00E94361920E030E0DE
:10122000A9010E941E2060E087FD0BC08CEC92E0BB
:101230000E94361920E030E040E05FE30E94D71EB4
:101240000AC08CEC92E00E94361920E030E040E0C9
:101250005FE30E94D61E0E943B1F7093CB026093F7
:10126000CA0240E060E08CEC92E00E94AF1820E0FF
:1012700030E0A9010E941E2040E060E087FD0BC025
:101280008CEC92E00E94AF1820E030E040E05FE399
:101290000E94D71E0AC08CEC92E00E94AF1820E09A
:1012A00030E040E05FE30E94D61E0E943B1F162FF5
:1012B0006093C8027093C9020091CA020E5C60E09C
:1012C00085E30E94B626802F63DE82E3810F60DE15
:1012D0008FEF5EDE61E085E30E94B62669E272E090
:1012E000CE0101960E944E276091C8027091C902FA
:1012F000CE0101960E94D82767EFCE0101960E9489
:101300009C27BE016F5F7F4F88EF92E00E941823F9
:10131000CE0101960E94E42688EF92E00E945116C9
:1013200026960FB6F894DEBF0FBECDBFDF91CF91EA
:101330001F910F9108958F929F92AF92BF92CF927B
:10134000DF92EF92FF920F9380EA882E86E8982E24
:10135000AA24A394B12C90E8C92E9AE1D92E96E044
:10136000E92EF12C04E020EB33E040E460E888EF64
:1013700092E06ED726E04BE062E08CEC92E00F91B9
:10138000FF90EF90DF90CF90BF90AF909F908F90A5
:101390000C943C1788EF92E0A5C720913A032223D2
:1013A00099F04FB7F89420913A03213059F42DB3B6
:1013B000209338033DB320913903209523232DBB7F
:1013C0004FBF02C0409338038CBD9DBD08958091EE
:1013D0003A03882361F09FB7F89420913A038091F3
:1013E0003803213019F48DBB9FBF08958FBF089536
:1013F00080E090E0089508952F923F924F925F927F
:101400006F927F928F929F92AF92BF92CF92DF9214
:10141000EF92FF920F931F93CF93DF9300D000D0F2
:10142000CDB7DEB72C017E836D836A015901C801F7
:10143000FC82EB824801841A950A97FE03C09194BE
:101440008194910835012D813E81621A730A77FEDD
:1014500003C0719461947108681479045CF43A2DA6
:101460002B2D5C01832F922F3D812E81DE82CD8238
:10147000C32ED22EAD81BE81AA16BB065CF43C2DD4
:101480002D2D6C01832F922F3D812E81BE82AD8246
:10149000A32EB22E85012D813E81021B130B1C0150
:1014A0002C183D0837FE03C031942194310878018F
:1014B00017FF03C03FEFE31AF30AF594E794C81649
:1014C000D9062CF08FEF9FEF9A83898304C0A1E0A7
:1014D000B0E0BA83A9832D813E81A216B30624F120
:1014E000D201ED91FC910484F585E02D2B813C81A6
:1014F0006814790424F44D815E81B60103C0A6010D
:101500006D817E81C2011995E218F308F7FE06C0CD
:1015100029813A81C20ED31EE00EF11E8D819E817B
:1015200001969E838D83D7CF26960FB6F894DEBFA3
:101530000FBECDBFDF91CF911F910F91FF90EF9024
:10154000DF90CF90BF90AF909F908F907F906F90E3
:101550005F904F903F902F900895DC01ED91FC91AA
:101560000084F185E02D19940F931F93DC01ED9118
:10157000FC91048CF58DE02D19951F910F91089524
:101580000F931F93DC01ED91FC91068CF78DE02DFC
:1015900019951F910F910895EF92FF920F931F934A
:1015A000DC01ED91FC9100A0F1A1E02D19951F91B6
:1015B0000F91FF90EF90089508958F929F92AF92B0
:1015C000BF92CF92DF92EF92FF920F931F93CF9330
:1015D000DF93EC015B014A0169017801E881F9813F
:1015E0000284F385E02D1995C80CD91C86010150A1
:1015F0001109E881F9810488F589E02D9501A4019C
:10160000B501CE011995E881F9810688F789E02DA9
:10161000CE01DF91CF911F910F91FF90EF90DF905E
:10162000CF90BF90AF909F908F9019948F929F9280
:10163000AF92BF92CF92DF92EF92FF920F931F93E0
:10164000CF93DF93EC015B014A016901E881F981E5
:101650000284F385E02D199595012C0D3D1D215037
:101660003109E881F9810488F589E02D7801840148
:10167000A401B501CE011995E881F9810688F789A1
:10168000E02DCE01DF91CF911F910F91FF90EF9050
:10169000DF90CF90BF90AF909F908F9019944F9212
:1016A0005F926F927F928F929F92AF92BF92CF92F2
:1016B000DF92EF92FF920F931F93CF93DF936C0112
:1016C0002B015A0139014801DC01ED91FC910284A2
:1016D000F385E02D1995E201640C751CD601ED919E
:1016E000FC91C615D7055CF40088F189E02D8701CF
:1016F0009401A501BE01C60119952196EFCF068878
:10170000F789E02DC601DF91CF911F910F91FF90D6
:10171000EF90DF90CF90BF90AF909F908F907F9091
:101720006F905F904F901994EF92FF920F931F93D9
:10173000DC011A960D911C911B9718962D913C91E6
:101740001997ED91FC9100A0F1A1E02D7B0140E003
:1017500050E060E070E019951F910F91FF90EF90BD
:1017600008958F929F92AF92BF92CF92DF92EF92A5
:10177000FF920F931F93CF93DF934C016B015A019C
:10178000E901DC01ED91FC916217730781F4041704
:10179000150724F48B2D5801042F182F0A191B0943
:1017A00098012F5F3F4F048CF58DE02D12C040173C
:1017B000510709F52617370724F48D2D6901C62F27
:1017C000D82F9E012C193D092F5F3F4F068CF78DB6
:1017D000E02D8701A501B601C4011995DF91CF91D4
:1017E0001F910F91FF90EF90DF90CF90BF90AF903F
:1017F0009F908F9008950284F385E02D1995D40170
:10180000ED91FC910488F589E02D9E01A501B601BA
:10181000C4011995D401ED91FC910688F789E02D5A
:10182000C401DF91CF911F910F91FF90EF90DF9056
:10183000CF90BF90AF909F908F9019946F927F92AE
:101840008F929F92AF92BF92CF92DF92EF92FF92D0
:101850000F931F93CF93DF93EC014B015A01690162
:101860003801E881F9810284F385E02D1995E8813A
:10187000F9810288F389E02D87019601A501B40161
:10188000CE011995A501460D571D41505109E8811A
:10189000F9810288F389E02D9601B401CE011995F2
:1018A000E881F9810088F189E02D9301A501B40157
:1018B000CE011995C80CD91CB60161507109E88197
:1018C000F9810088F189E02D9301A501CE011995D8
:1018D000E881F9810688F789E02DCE01DF91CF916B
:1018E0001F910F91FF90EF90DF90CF90BF90AF903E
:1018F0009F908F907F906F9019940895FC01637072
:10190000668B8481958126813781613039F063301F
:1019100029F0918780873387228708953187208730
:10192000938782870895FC011382128284E392E0F8
:10193000918380837583648357834683718760872F
:1019400053874287168A158614861786168681E085
:10195000858B848B2FEF3FEF338B228B318B208B4A
:10196000878B108E128E118E08953F924F925F9248
:101970006F927F928F929F92AF92BF92CF92DF929F
:10198000EF92FF920F931F93CF93DF93CDB7DEB704
:101990002A970FB6F894DEBF0FBECDBF5C017E83E1
:1019A0006D8358874F8329013701DC01ED91FC914C
:1019B0000284F385E02D1995C801079697FD0796D7
:1019C0009C0193E0359527959A95E1F73A83298311
:1019D000812C912CE12CF12C312C8F8198858E0D4E
:1019E0009F1D9C838B83E614F7040CF03DC01A8680
:1019F0001986A985BA85A017B10774F5CD0187703E
:101A00009927892B11F0330C0EC0E985FA85F7FD73
:101A1000379683E0F595E7958A95E1F7E80DF91D8E
:101A2000E40DF51D349037FE11C0D501ED91FC9108
:101A30000484F585E02D96014B815C816D817E816A
:101A400089859A85680F791FC5011995A985BA8579
:101A50001196BA87A987CDCFBFEFEB1AFB0A298170
:101A60003A81820E931EB9CFD501ED91FC91068883
:101A7000F789E02DC5012A960FB6F894DEBF0FBE98
:101A8000CDBFDF91CF911F910F91FF90EF90DF902D
:101A9000CF90BF90AF909F908F907F906F905F900E
:101AA0004F903F9019942F923F924F925F926F9276
:101AB0007F928F929F92AF92BF92CF92DF92EF92DE
:101AC000FF920F931F93CF93DF93CDB7DEB76B9742
:101AD0000FB6F894DEBF0FBECDBF9B8F8A8F2B0150
:101AE0005A834983D22E198708874701AB82DC01CC
:101AF00059962D913C915A972115310509F000C155
:101B000018968D919C911997681779070CF0E7C189
:101B10001A968D919C911B97481759070CF0DFC1BD
:101B20002C2C312CFB0126E0C29EE00DF11D11246E
:101B3000FD87EC871E161F060CF0D1C14A2D50E020
:101B40005B874A8783E0440F551F8A95E1F75F87DB
:101B50004E8789819A81840F951F181619060CF0FB
:101B6000BEC158968C91811104C06FEA6D1508F4BE
:101B7000D394AA8DBB8DED91FC9111970284F385CE
:101B8000E02DCD011995B5E0DB9EC0011124EC2DAF
:101B9000F0E0F98BE88B92012B5F3F4F3B8B2A8B58
:101BA00032015D824C82AC01441955095D8B4C8B2E
:101BB0007B81672F70E07F8B6E8B89819A8108967D
:101BC000998F888FEC89FD89E60DF71DE45CFE4F47
:101BD000D490A981BA81BF83AE835D01D0FE16C0C7
:101BE000AA8DBB8DED91FC91B1E0CB1209C02B8188
:101BF000213031F40484F585E02D2885398519C01C
:101C00000684F785E02DE884F9841DC04885598550
:101C10004815590511F1AA8DBB8DED91FC91B1E0EC
:101C2000CB120DC02B81213051F40484F585E02DB9
:101C30009401A501B3018A8D9B8D19950EC0068470
:101C4000F785E02D74010A851B8591014E815F8126
:101C50006C817D818A8D9B8D1995D6944E815F8193
:101C60006E897F89460F571F5F834E837FEFA71AC8
:101C7000B70A888D998DA816B90609F0AFCFAC8147
:101C8000BD81E889F989AE0FBF1FBD83AC83FFEF2B
:101C90006F1A7F0A2A893B896216730609F092CF70
:101CA000488559854815590509F4F7C0AA8DBB8D9B
:101CB000ED91FC91B1E0CB1212C02B81213079F46F
:101CC000B2016B5F7F4F0088F189E02D840128E02D
:101CD00030E049815A818A8D9B8D1995DEC06C85D3
:101CE0007D85621973090684F785E02D74010E85E0
:101CF0001F85910149815A818A8D9B8D1995CDC08F
:101D0000F9013496E491DE1AF901329685919491A5
:101D1000B7E0DB9E800D911D1124F90125913491CE
:101D2000398B288BFC0125903490FC0132967490FD
:101D30003196A490329694903196B49031E03C154F
:101D400018F04B81423068F0692D092C000C770B9C
:101D50007D836C838B2D0B2C000C990B9F838E83C2
:101D600004C01F821E821D821C82AA8DBB8DED9134
:101D7000FC9111970284F385E02DCD011995612C1A
:101D8000D12C812CFB81EF2FF0E0FB87EA872C2DF3
:101D900030E03D872C8749815A814B0D511DB7FC9E
:101DA0005A955D8B4C8BB201690D711D97FC7A952C
:101DB0007F8B6E8B8A1408F070C0282D30E04E8126
:101DC0005F81420F531FAA85BB85A49FC001A59FB9
:101DD000900DB49F900D1124E981FA81E80FF91F4D
:101DE000FF87EE87862D912C4C895D89420F531F0A
:101DF0005B8B4A8B971408F04DC0BB24B394B80E8C
:101E0000877041F4C1010196E889F989E20DF31D5B
:101E1000D4901C01D7FE3AC051E0C51216C06B81A8
:101E2000613099F4AA8DBB8DED91FC9111970484DA
:101E3000F585E02D288539854A895B896E897F89FA
:101E4000690D711DCD01199521C08C819D81890D70
:101E5000911DEC85FD858E9FB0018F9F700D9E9F1B
:101E6000700D1124640D751DAA8DBB8DED91FC9133
:101E700011970684F785E02DE884F9840A851B858F
:101E80002C853D854E855F85CD011995DD0C93949C
:101E90008B2DB0CF670C83948DCFAA8DBB8DED9128
:101EA000FC9111970688F789E02DCD016B960FB64E
:101EB000F894DEBF0FBECDBFDF91CF911F910F9180
:101EC000FF90EF90DF90CF90BF90AF909F908F905A
:101ED0007F906F905F904F903F902F9019946B96EA
:101EE0000FB6F894DEBF0FBECDBFDF91CF911F912B
:101EF0000F91FF90EF90DF90CF90BF90AF909F90A9
:101F00008F907F906F905F904F903F902F900895AB
:101F10008F929F92AF92CF92EF92FF920F931F9367
:101F2000CF93DF93EC01262F898D9A8D009709F0CE
:101F300041C06A3059F41D861C862D898E859F8587
:101F400038E0239F800D911D112442C06D3009F4AB
:101F5000A8C08F898823C9F03C898C859D8546E07F
:101F6000349F800D911D11244885598548175907C4
:101F700064F41D861C863D898E859F8548E0349FCC
:101F8000800D911D11249F878E87EA88FB88088920
:101F900019894E855F856C857D85AD88CC88CE019D
:101FA00082DD2C898C859D8536E0239F800D911DD7
:101FB00011243EC06A3079F41D861C862D89FC01EF
:101FC0003896E4918E859F852E9F800D911D11245A
:101FD0009F878E8766C06D3009F463C0FC0134961C
:101FE0003491631708F45DC03296E491E61708F463
:101FF00058C0462F431B342FFC0132968590949095
:1020000047E0349F800C911C1124F40132963491E6
:102010003196E491332311F0E1110DC0F4013496AF
:10202000E4912C898C859D85E29F800D911D112462
:102030009D878C8736C0F401359644915F8955237E
:1020400019F15C89E32FF0E0E40FF11D47FDFA95EB
:102050005E9FB0015F9F700D11244C855D85460F1A
:10206000571F688579856417750774F41D861C866B
:102070003D89FC013896E4918E859F853E9F800DB9
:10208000911D11249F878E87EA88FB88088919890A
:102090004E855F856C857D85AD88CC88CE0103DD5E
:1020A000BDCF81E090E0DF91CF911F910F91FF9024
:1020B000EF90CF90AF909F908F900895611101C0E5
:1020C00061E0FC01648B411101C041E0FC01458BE2
:1020D0000895462FF3CFFC0177FDB9C08085918527
:1020E000681779070CF0B3C057FDB1C0828593859E
:1020F000481759070CF008958689823079F4848155
:102100009581DC01A61BB70BBD0161507109868169
:102110009781DC01A41BB50BAD010EC0833009F023
:1021200084C064277527CA018627972768277927DF
:1021300046815781481B590B4150510921303105C7
:1021400031F048F12230310509F44AC00895CA013E
:1021500057FD07969C01A3E035952795AA95E1F7D1
:10216000A481B5812A9FC0012B9F900D3A9F900DAD
:102170001124680F791F078CF0A1E02DE60FF71FDF
:102180004770552781E090E001C0880F4A95EAF733
:102190009081892B48C0CA0157FD07969C0193E0A6
:1021A000359527959A95E1F7A481B5812A9FC001BD
:1021B0002B9F900D3A9F900D1124680F791F078C6B
:1021C000F0A1E02DE60FF71F4770552781E090E062
:1021D00001C0880F4A95EAF780959081892323C032
:1021E000CA0157FD07969C0183E0359527958A958E
:1021F000E1F7A481B5812A9FC0012B9F900D3A9FE2
:10220000900D1124680F791F078CF0A1E02DE60FC7
:10221000F71F4770552781E090E001C0880F4A956D
:10222000EAF79081892780830895813009F086CF6D
:10223000642775274627572764277527848195814A
:10224000DC01A61BB70BBD016150710977CF089562
:102250004F925F926F927F928F929F92AF92BF92B6
:10226000CF92DF92EF92FF920F93CF93DF93CDB790
:10227000DEB73C01290150E070E055DB80E692E0DA
:10228000F30191838083148E138E4114510411F055
:10229000C20102C080EB93E0F301968F858F10A2FC
:1022A000178E8FEF84A385A386A387A300A7C5AA53
:1022B000D6AAE7AAF0AE81AE92AEA3AEB4AE80E5E8
:1022C00086AF17AEDF91CF910F91FF90EF90DF9027
:1022D000CF90BF90AF909F908F907F906F905F90C6
:1022E0004F90089520E632E0FC0131832083878DF2
:1022F00090A1009711F00C94E22808951F93CF93BA
:10230000DF93FC01858D968D009719F1162FEF0153
:1023100061A1062E000C770B0E945C1E8D8D9E8D98
:10232000DC01ED91FC910190F081E02D60E01995C8
:102330008D8D9E8DDC01ED91FC910190F081E02D61
:10234000612F19958D8D9E8DDF91CF911F910C94EA
:10235000D11EA5A5B6A59C9183A9809589238C93B0
:10236000838D948D892B31F0862FDF91CF911F9132
:102370000C94C80728E030E080E8A1A5B2A591A997
:10238000462F482319F04C91942B03C04C91909503
:1023900094239C93A3A5B4A54C9192A9942B9C93B0
:1023A000A3A5B4A54C9192A9909594239C9386954E
:1023B0002150310911F7DF91CF911F9108951F939B
:1023C000CF93DF93EC01162F8D8D9E8D009739F002
:1023D0004DA95EA96FA978AD0E944F1E0FC08B8DCD
:1023E0009C8D892B21F08EAD9FAD0E94CD09EFA56C
:1023F000F8A990818CA9809589238083111102C04E
:1024000066EA01C067EACE0179DF8D8D9E8D009767
:1024100049F049AD5AAD6BAD7CADDF91CF911F91C5
:102420000C944F1EEFA5F8A990818CA9892B80836D
:102430008B8D9C8D892B29F0DF91CF911F910C946E
:10244000E709DF91CF911F910895BF92CF92DF925C
:10245000EF92FF920F931F93CF93DF93EC01B62E71
:10246000072F142F8D8D9E8D009709F452C069A1FE
:10247000062E000C770B0E945C1E8D8D9E8DDC015C
:10248000ED91FC910190F081E02D60E01995CB2C4D
:10249000D02EEE24E394F12C8D8D9E8D112371F1BD
:1024A000B0E2EB16F104B8F00E94D11E69A1062E2D
:1024B000000C770B8D8D9E8D0E945C1E8D8D9E8DE8
:1024C000DC01ED91FC910190F081E02D60E0199527
:1024D000EE24E394F12C8D8D9E8DF6016491DC0148
:1024E000ED91FC910190F081E02D1995BFEFEB1A71
:1024F000FB0A1150F60131966F01CECFDF91CF91DB
:102500001F910F91FF90EF90DF90CF90BF900C94B0
:10251000D11EEDA5FEA590818BA98095892380838E
:10252000E62EF72E112379F1F70184912B8D3C8D46
:10253000232B39F00E94C8071150C70101967C0176
:10254000F1CF28E030E040E8E9A5FAA599A9582F95
:10255000542319F05081952B03C0508190959523F9
:102560009083EBA5FCA550819AA9952B9083EBA5B0
:10257000FCA550819AA9909595239083469521506A
:10258000310911F7D9CFDF91CF911F910F91FF90B2
:10259000EF90DF90CF90BF900895FC0186819781E6
:1025A0009C01295F3F4F37FF02C0295F3F4F83E007
:1025B000359527958A95E1F784819581289FA0011B
:1025C000299F500D389F500D112460E070E0878DD9
:1025D00090A10C94582A8F929F92AF92BF92CF9263
:1025E000DF92EF92FF920F931F93CF93DF93EC0153
:1025F000862EB42EA22E902E8F8D98A1892BE9F4D1
:102600002E813F81C901079697FD079623E0959596
:1026100087952A95E1F72C813D81AC01429FC0014D
:10262000439F900D529F900D11240E944A2898A319
:102630008F8F892B11F480E083C1CE01AEDF8E81B4
:102640009F816C817D8181329105E4F0AC01405421
:10265000510957FF02C04F5F5F4F5595479562552F
:10266000710977FF02C06F5F7F4F75956795CC2426
:10267000C394D12C80E4E82EF12C02E510E023E491
:1026800038E01BC0AC014052510957FF02C04F5FF8
:102690005F4F559547956357710977FF02C06F5F8C
:1026A0007F4F75956795CC24C394D12CA0E2EA2E78
:1026B000F12C03E710E023E636E0CE0156D98AA2DA
:1026C0008D8D9E8D009799F0B11007C02E813F81AE
:1026D0002032310521F42CE303C02B2D01C02DE362
:1026E00029A3992009F429C10E94401E78C061E005
:1026F0008EA10E947A2661E08FA10E947A268EA187
:10270000082E000C990BFC01E157F44FE491F0E026
:10271000EE0FFF1FE151F44F259134913EA72DA7F5
:10272000FC01E75BF44FE491EBAB8FA1082E000CAA
:10273000990BFC01E157F44FE491F0E0EE0FFF1F1D
:10274000E151F44FA591B491B8ABAFA7FC01E75BA1
:10275000F44FE491ECAB8C91E82BEC938B8D9C8D3A
:10276000892B29F0992009F43AC0C2D538C061E01C
:102770008CA10E947A2661E08DA10E947A268CA10C
:10278000082E000C990BFC01E157F44FE491F0E0A6
:10279000EE0FFF1FE151F44F259134913AA729A77D
:1027A000FC01E75BF44FE491E9AB8DA1082E000C2E
:1027B000990BFC01E157F44FE491F0E0EE0FFF1F9D
:1027C000E151F44FA591B491BCA7ABA7FC01E75B25
:1027D000F44FE491EAAB8C91E095E823EC93AA20C6
:1027E000F1F088A587FD1BC061E00E947A2661E0B8
:1027F00088A50E94B62661E070E080E090E00E942B
:102800007F2560E088A50E94B6266AE070E080E03F
:1028100090E00E947F2561E088A50E94B6268D8DFC
:102820009E8D009739F04DA95EA96FA978AD0E94E1
:102830004F1E0FC08B8D9C8D892B21F08EAD9FADCF
:102840000E94CD09EFA5F8A990818CA980958923D4
:10285000808344E06FE576E0CE01F7DD6E81615064
:10286000CE014CDD44E06BE576E0CE01EEDD8AA1E1
:10287000813011F460E101C064E1CE013FDD44E04C
:1028800067E576E0CE01E1DD8FE88DAF8C819D813B
:102890008038910571F48E819F8180349105B9F45F
:1028A0008AA1813011F48FE901C08FEC8DAF12E164
:1028B0000FC08036910559F48E819F81409739F47D
:1028C0008AA1813011F480E101C08FEA8DAF12E05E
:1028D0006AEDCE0113DD612FCE0110DD61E8CE017E
:1028E0000DDD6DADCE010ADD69EDCE0107DD8AA1FA
:1028F000813011F462E201C061EFCE01FFDC46E0FD
:1029000061E576E0CE01A1DD8D8D9E8D009739F0D9
:1029100049AD5AAD6BAD7CAD0E944F1E0CC0EFA50A
:10292000F8A990818CA9892B80838B8D9C8D892B14
:1029300011F00E94E70981E003C0A11052CF73CFCC
:10294000DF91CF911F910F91FF90EF90DF90CF908B
:10295000BF90AF909F908F9008950F931F93CF9348
:10296000DF93DC0157FD64C016968D919C911797FB
:10297000481759070CF05CC077FF04C0260F371FBB
:1029800060E070E01496CD91DC911597CB01820F39
:10299000931FC817D9071CF49E01261B370B12166C
:1029A00013060CF045C0FA0157FD3796CF01E3E05E
:1029B00095958795EA95E1F78C9FF0018D9FF00D35
:1029C0009C9FF00D11246E0F7F1F5F96ED91FC917F
:1029D0009097E60FF71F4770552781E090E001C000
:1029E000880F4A95EAF7482F0130110539F078F041
:1029F00002301105E9F42E0F3F1F13C02E0F3F1FA9
:102A0000E217F307A9F08081842B8193F9CF809599
:102A10002E0F3F1FE217F30759F0908198239193EF
:102A2000F9CFE217F30721F0808184278193F9CF52
:102A3000DF91CF911F910F910895EF92FF920F9325
:102A40001F93CF93DF93EC0177FDA5C0EC80FD8051
:102A50006E157F050CF09FC057FF04C0240F351F73
:102A600040E050E08E819F81FA01E20FF31F8E1744
:102A70009F071CF49C01241B350B121613060CF047
:102A80008AC0922F842F8695869586958E9DD0013B
:102A90008F9DB00D11246A0F7B1FAF8DB8A1A60FBB
:102AA000B71F4770B1F188E0841B482F682F70E092
:102AB000FB01E75BF94FE491281798F4621B710959
:102AC0002FEF30E002C0359527956A95E2F7E223B3
:102AD0000130110549F078F00230110509F05BC0B2
:102AE0000EC00130110519F48C91E82B0AC0013099
:102AF000110508F049C0E0958C91E82302C08C9143
:102B0000E827EC93941708F446C02C813D81A20F6E
:102B1000B31FE92FE41BE830F8F00230110561F42F
:102B20008E2F9C9190959C932C813D81A20FB31F79
:102B300088508830B0F70FC081E00115110509F405
:102B400080E081959E2F8C932C813D81A20FB31F35
:102B500098509830C0F7E770EE23E9F0F0E0EF5BB3
:102B6000F94FE4910130110539F048F002301105B8
:102B700091F48C91E82706C08C91E82B03C0E09576
:102B80008C91E823EC9307C00230110509F4B7CF0C
:102B9000AE0DBF1DBECFDF91CF911F910F91FF9062
:102BA000EF9008950F931F93DC015696EC91569782
:102BB000E23061F0E33009F1E13079F51496ED91FE
:102BC000FC911597E41BF50B319723C0DC0114969B
:102BD000ED91FC911597DF01A61BB70BBD01DC0140
:102BE0001696ED91FC911797DF01A41BB50BAD0173
:102BF00041505109621B730B10C0FA01DC0116969B
:102C00004D915C911797DA01A61BB70BBD01621BB2
:102C1000730BAB01BF0111DF01C09FDE1F910F914C
:102C200008950F931F93DC015696EC915697E2306E
:102C300069F0E33011F1E13081F51496ED91FC91EA
:102C40001597E41BF50BE21BF30B23C0DC01149674
:102C5000ED91FC911597DF01A61BB70BBD016150EB
:102C60007109DC011696ED91FC911797DF01A41B09
:102C7000B50BAD01421B530B10C0FA01DC011696D7
:102C80004D915C911797DA01A61BB70BBD016150FE
:102C90007109AB01BF0161DE01C0CFDE1F910F9151
:102CA0000895CF92DF92EF92FF920F931F93CF93ED
:102CB000DF93EC018D8D9E8D009731F04DA95EA9BB
:102CC0006FA978ADECD70FC08B8D9C8D892B21F02F
:102CD0008EAD9FAD0E94CD09EFA5F8A990818CA97A
:102CE00080958923808345E06CE376E0CE01ADDBFF
:102CF0006C816150CE0102DB2E813F81C9010796B4
:102D000097FD079623E0959587952A95E1F72C8105
:102D10003D81829F7001839FF00C929FF00C1124E3
:102D20000F8D18A18D8D9E8DE00EF11E009709F478
:102D300040C069A1062E000C770BBED78D8D9E8DED
:102D4000DC01ED91FC910190F081E02D60E419959A
:102D5000680101E010E08D8D9E8DEC14FD0439F1C9
:102D600000321105A8F00E94D11E69A1062E000CA8
:102D7000770B8D8D9E8DA0D78D8D9E8DDC01ED9175
:102D8000FC910190F081E02D60E4199501E010E0E4
:102D90008D8D9E8DF60161916F01DC01ED91FC91AD
:102DA0000190F081E02D19950F5F1F4FD4CFF9D717
:102DB00035C0EDA5FEA590818BA9892B80830E15CA
:102DC0001F0561F1F80181918F012B8D3C8D232B23
:102DD00019F00E94C807F3CF28E030E040E8E9A5E9
:102DE000FAA599A9582F542319F05081952B03C0A7
:102DF0005081909595239083EBA5FCA550819AA9CD
:102E0000952B9083EBA5FCA550819AA990959523CD
:102E1000908346952150310911F7D1CF8D8D9E8D2C
:102E2000009769F049AD5AAD6BAD7CADDF91CF91A4
:102E30001F910F91FF90EF90DF90CF9030C7EFA5DB
:102E4000F8A990818CA9892B80838B8D9C8D892BEF
:102E500051F0DF91CF911F910F91FF90EF90DF9094
:102E6000CF900C94E709DF91CF911F910F91FF90C4
:102E7000EF90DF90CF900895DC0115966C93159735
:102E800016964C93169770E0FB01E75BF44FE491C4
:102E90001796EC931797FB01E157F44F649118963E
:102EA0006C93189740E85EE360E070E01D964D93E8
:102EB0005D936D937C93509708951F93CF93DF9309
:102EC000EC01162F62E08D810E947A260E944E2529
:102ED000DC01CB01805D9740A109B10989879A8700
:102EE000AB87BC871A8BDF91CF911F910895CF924A
:102EF000DF92EF92FF921F93CF93DF93EC011F813C
:102F0000662311F0912F01C090E0288530E0220F58
:102F1000331F2B52344FA0E0B0E0F901459154919A
:102F2000FA0180818123AD0160E070E098130FC049
:102F30001196CD84DE84EF84F8884C155D056E050E
:102F40007F0558F33FEF2FEF8FEF9FEF03C03A2F2E
:102F5000252FCB01632F722FDF91CF911F91FF900F
:102F6000EF90DF90CF9008958F929F92AF92BF9293
:102F7000CF92DF92EF92FF920F931F93CF93DF9345
:102F8000CDB7DEB7C054D1400FB6F894DEBF0FBE48
:102F9000CDBF8C01F62E0E944E25F11016C0F8010F
:102FA000C184D284E384F4849B01AC012C193D09D3
:102FB0004E095F0969017A0130EDC31637E0D30687
:102FC000E104F10410F48189B6C0F80161877287C9
:102FD000838794871482138212821182108262E0A6
:102FE00085810E947A2661E070E080E090E00E9496
:102FF0007F2561E0F80185810E947A2660E0F80172
:1030000085810E94B626F80186818551823028F498
:103010008CE494E00E94B82506C064E170E080E092
:1030200090E00E947F2562E0F80185810E947A2667
:10303000F801828990E00E94B825F89460E0C80108
:1030400056DF6F3F7F4F8F4F9F4F21F4F801118A5A
:10305000789442C061E0C8014ADF6F3F7F4F8F4FD5
:103060009F4FA1F39E012F5F3F4F79015E013FEB20
:10307000A31A3EEFB30A670160E0C80138DFF6012A
:10308000608371838283938361E0C80130DFF6013E
:103090006483758386839783F8E0CF0ED11CCA14AE
:1030A000DB0451F7789420E030E0F70180809180D4
:1030B000A280B3804481558166817781FFEF8F16AE
:1030C0009F06AF06BF0631F04F3F8FEF58076807E6
:1030D000780721F4F801118A80E02DC0F90183E01E
:1030E000F595E7958A95E1F7E00FF11F8081880F4C
:1030F00084169506A606B70608F4816080832F5FC4
:103100003F4FF8E0EF0EF11C2832310571F6F8015F
:10311000248130E04081818190E0840F911D4281C3
:10312000840F911D4381840F911D9927281739071A
:1031300089F681E0818BC05CDE4F0FB6F894DEBF6C
:103140000FBECDBFDF91CF911F910F91FF90EF90F8
:10315000DF90CF90BF90AF909F908F900895CF92C7
:10316000DF92EF92FF920F931F93CF93DF938C0127
:10317000C62F642FF9DE882309F46BC0F80186811D
:103180008C3009F43EC018F48B30B9F062C0855120
:10319000823008F05EC0F801D2816D2F6F7770E049
:1031A000762F66278381682B80E090E095D62DEC02
:1031B0003CEC4CEC5DE346D73DC0F801628170E029
:1031C00080E090E089D66B017C01F801D381D7FFC4
:1031D00009C09B01AC0160E070E080E89FEBE6D5A0
:1031E0006B017C016D2F6F7070E080E090E076D60F
:1031F0002DEC3CEC4CEC5DE325D7A7019601D7D52F
:103200001BC0F801D28163816F7070E080E090E0B4
:1032100065D62DEC3CEC4CEC5DE314D76B017C01E6
:103220006D2F70E080E090E057D69B01AC01C701A4
:10323000B601BDD5D7FD9058CC2379F026E636E609
:1032400046EE5FE3FFD620E030E040E052E4AFD549
:1032500004C060E070E080EC9FE7DF91CF911F91A8
:103260000F91FF90EF90DF90CF900895CF92DF9273
:10327000EF92FF92CF93DF93EC0176DE882369F122
:103280008E818B3050F18D3088F08551823028F559
:103290006881798176276727762780E090E01CD6C1
:1032A0002DEC3CEC4CEC5DE3CDD61BC0698170E0AD
:1032B00080E090E013D62DEC3CEC4CEC5DE3C2D604
:1032C0006B017C01688170E080E090E007D69B0193
:1032D000AC01C701B6016BD504C060E070E080ECC2
:1032E0009FE7DF91CF91FF90EF90DF90CF9008950F
:1032F000CF93CFB7F89480913B03811127C0E4ECC2
:10330000FBE08491EEE7FBE09491E82FF0E0EE0F14
:10331000FF1FE75FF34FA591B491EC91E92321F4EE
:1033200061E085E30E94B62661E085E30E947A268B
:103330008CB580618CBD8CB580648CBD61E084E30C
:103340000E947A2661E083E30E947A2680913B0303
:103350008F5F80933B03CFBFCF9108951092AF034F
:1033600081E08093AD031092AC0361E084E10E94A0
:10337000B62661E085E10E94B626E9EBF0E08081A7
:103380008E7F808380818D7F808388E48093B800E6
:1033900085E48093BC000895ECEBF0E080818A7BAB
:1033A000808360E084E10E94B62660E085E10C94B1
:1033B000B6269B01AC0160E074E284EF90E00E94CD
:1033C0000728DA01C9014097A109B109B695A79567
:1033D000979587958093B800089540915E03262FB6
:1033E00030E0240F311D21323105DCF42091AF0390
:1033F0002430C9F4FC0180E090E0861758F4309145
:103400005E032191DC01A05ABC4FA30FB11D2C9388
:103410000196F3CF80915E03680F60935E0380E0B6
:10342000089581E0089582E008959093A303809326
:10343000A20308959093A5038093A403089585ECB7
:103440008093BC001092AF030895CF93DF9391E077
:103450009093A703882351F0C091B800D091BA008F
:103460009BDF7CDFD093BA00C093B800DF91CF918F
:1034700008954F925F926F927F928F929F92AF9238
:10348000BF92CF92DF92EF92FF920F931F93CF9351
:10349000DF93F82E162F072FC42FE22E413208F0AB
:1034A000BCC00E945A254B015C01D091AF03DD23C3
:1034B00029F18091A8039091A903A091AA03B0914A
:1034C000AB03892B8A2B8B2B81F30E945A254090CA
:1034D000A8035090A9036090AA037090AB03DC018D
:1034E000CB0188199909AA09BB09481659066A0629
:1034F0007B06D8F68091A603A8DF8FC081E0809379
:10350000AF03E092AD039FEF90933C0310928103D1
:103510009C0F909380038093AE039091AE038F2D08
:10352000880F892B8093AE038091AC03813089F59D
:103530001092AC030E945A256B017C018091AE036E
:103540008093BB008091A8039091A903A091AA0346
:10355000B091AB03892B8A2B8B2BA9F00E945A25A3
:103560008090A8039090A903A090AA03B090AB0309
:10357000DC01CB018C199D09AE09BF09881699069B
:10358000AA06BB0690F18091BC0083FDD7CF85ECE5
:1035900001C085EE8093BC000E945A256B017C011E
:1035A0008091AF03813029F58091A8039091A90300
:1035B000A091AA03B091AB03892B8A2B8B2B81F3AB
:1035C0000E945A258090A8039090A903A090AA0376
:1035D000B090AB03DC01CB018C199D09AE09BF098A
:1035E00088169906AA06BB06D8F68091A6032DDF99
:1035F00015C0809181038C1710F4C0918103A2E85B
:10360000B3E0912FE12FF02F8E2F891B8C1718F428
:103610008D918193F9CFDC2F01C0D0E08D2FDF9108
:10362000CF911F910F91FF90EF90DF90CF90BF90BF
:10363000AF909F908F907F906F905F904F90089584
:103640004F925F926F927F928F929F92AF92BF92B2
:10365000CF92DF92EF92FF920F931F93CF93DF935E
:10366000413208F0C5C0122FF42ED72EE62ED82FE7
:103670000E945A254B015C01C091AF03CC2311F18C
:103680008091A8039091A903A091AA03B091AB03E4
:10369000892B8A2B8B2B81F30E945A254090A803FB
:1036A0005090A9036090AA037090AB03DC01CB019A
:1036B00088199909AA09BB09481659066A067B06A2
:1036C000D8F683C082E08093AF030093AD038FEF01
:1036D00080933C0310928103F09280039E2DA2E818
:1036E000B3E0EE2DFD2D8E2F891B8F1518F48191DF
:1036F0008D93F9CF1092AE039091AE03DD0FD92BCD
:10370000D093AE038091AC03813089F51092AC0365
:103710000E945A256B017C018091AE038093BB000F
:103720008091A8039091A903A091AA03B091AB0343
:10373000892B8A2B8B2BA9F00E945A258090A803F5
:103740009090A903A090AA03B090AB03DC01CB0139
:103750008C199D09AE09BF0988169906AA06BB06F1
:10376000A0F18091BC0083FDD7CF85EC01C085EE30
:103770008093BC000E945A256B017C01112351F1FA
:103780008091AF03823031F58091A8039091A90315
:10379000A091AA03B091AB03892B8A2B8B2B71F3D9
:1037A0000E945A258090A8039090A903A090AA0394
:1037B000B090AB03DC01CB018C199D09AE09BF09A8
:1037C00088169906AA06BB06C8F68091A6033DDEB8
:1037D000C5E013C080913C038F3F79F080913C039A
:1037E000803241F080913C03803331F0C4E005C069
:1037F000C1E003C0C2E001C0C3E08C2FDF91CF91D4
:103800001F910F91FF90EF90DF90CF90BF90AF90FE
:103810009F908F907F906F905F904F90089585ED6F
:103820008093BC008091A8039091A903A091AA0362
:10383000B091AB030796A11DB11D23E0B695A795E6
:10384000979587952A95D1F72091BC0024FF1BC03E
:103850004091A8035091A9036091AA037091AB0312
:10386000452B462B472B81F30097A105B10541F06D
:1038700025E32A95F1F700000197A109B109E4CFEA
:103880008091A603E2CD1092AF0308951F920F928C
:103890000FB60F9211240BB60F922F933F934F93B5
:1038A0005F936F937F938F939F93AF93BF93EF93A8
:1038B000FF938091B900887F803609F49DC070F530
:1038C000883209F45CC090F4803109F455C038F4B2
:1038D000882309F4F3C0883009F44EC0F2C088315F
:1038E00009F44DC0803209F45EC0EBC0803409F4A5
:1038F00069C050F4803309F456C0883309F0E1C040
:1039000080933C039CDDDDC0803509F44FC08835D1
:1039100009F45DC0883409F0D4C0D2C0883909F4F4
:10392000C3C0A8F4883709F467C038F4883609F4AE
:1039300063C0803709F460C0C4C0883809F4B4C0DB
:10394000803909F45FC0803809F0BBC05BC0803BA0
:1039500009F482C038F4803A09F466C0883A09F460
:103960007BC0AFC0803C09F4A3C0883C09F4A0C070
:10397000883B09F486C0A5C08091AE0310C0909129
:10398000810380918003981770F5E091810381E0B5
:103990008E0F80938103F0E0EE57FC4F808180937F
:1039A000BB0085EC82C080933C038AC0E091810318
:1039B00081E08E0F809381038091BB00F0E0EE5791
:1039C000FC4F808390918103809180036AC0E091D5
:1039D000810381E08E0F809381038091BB00F0E032
:1039E000EE57FC4F80838091AD03811169C081E067
:1039F0008093AC0384EA5DC083E08093AF031092B0
:103A00003D03CFCF80913D03803208F04DC0E0915F
:103A10003D0381E08E0F80933D038091BB00F0E079
:103A2000E25CFC4F8083BDCF0ADD80913D03803294
:103A300030F4E0913D03F0E0E25CFC4F10826091D5
:103A40003D0370E0E091A203F091A3038EE393E0C5
:103A5000199510923D0335C084E08093AF03109216
:103A60005F0310925E03E091A403F091A503199502
:103A700080915E03811105C081E080935E03109206
:103A80006003E0915F0381E08E0F80935F03F0E0BD
:103A9000E05AFC4F80818093BB0090915F0380913E
:103AA0005E03981708F47DCF85E88093BC0009C0B9
:103AB00085EC8093BC001092AF0303C010923C03CE
:103AC000AEDEFF91EF91BF91AF919F918F917F916A
:103AD0006F915F914F913F912F910F900BBE0F907F
:103AE0000FBE0F901F9018958091E40390E02091F5
:103AF000E503821B910908959091E5038091E40309
:103B0000981750F4E92FF0E0EA51FC4F208130E0A3
:103B10009F5F9093E50302C02FEF3FEFC901089527
:103B2000E091E5038091E403E81730F4F0E0EA5116
:103B3000FC4F808190E008958FEF9FEF08950895E6
:103B4000CF93DF93EC01E091BC03F091BD0330977C
:103B5000F1F09091E5038091E4039817C0F090E0B4
:103B6000292F30E02617370754F4DE01A20FB31FC8
:103B70004C91D901AA51BC4F4C939F5FF1CF109249
:103B8000E5036093E403CB01DF91CF911994DF91BA
:103B9000CF910895E091BE03F091BF03309729F0D3
:103BA0001092C2031092C10319940895CF92DF922C
:103BB000EF92FF920F931F93CF93DF937C01CB0182
:103BC0008A012091C003222389F0EB016B01C40E0E
:103BD000D51ECC15DD0561F06991D701ED91FC9101
:103BE0000190F081E02DC7011995F3CF642FF5DB2B
:103BF000C801DF91CF911F910F91FF90EF90DF905F
:103C0000CF900895CF93DF931F92CDB7DEB769832E
:103C10002091C0032223D1F02091C103203240F033
:103C200021E030E0FC013383228380E090E014C087
:103C30008091C203E82FF0E0ED53FC4F998190830F
:103C40008F5F8093C2038093C10304C061E0CE0103
:103C50000196C3DB81E090E00F90DF91CF91089552
:103C6000FC011382128288EE93E0A0E0B0E084832E
:103C70009583A683B7838CE892E09183808308952F
:103C80001092E5031092E4031092C2031092C10354
:103C900065DB8AEC9DE1CEDB80EA9DE1C6CBCB0102
:103CA000BA0187CB81E08093C0036093E303109255
:103CB000C2031092C1030895F5CF0F93062F21E0A0
:103CC0004091C10363EC73E08091E303B9DC10928F
:103CD000C2031092C1031092C0030F9108954F9236
:103CE0005F926F927F92AF92BF92CF92EF92FF92CC
:103CF0000F931F93CF93DF935C01F62ED42F2801EF
:103D00003901EE2011F1CEDFCE2DC43008F0C3E032
:103D1000C150C0F028E0C29FC0011124A30192014C
:103D200004C056954795379527958A95D2F7CA01CD
:103D3000B901D501ED91FC910190F081E02DC50113
:103D40001995E6CF60E0C501B8DF4D2FD13208F0FC
:103D500040E22C2D66EE73E08F2D8BDB1092E50395
:103D60008093E403DF91CF911F910F91FF90EF902B
:103D7000CF90BF90AF907F906F905F904F900895DD
:103D8000CF92EF920F931F93C22EE12C00E010E030
:103D90009801A5DF1F910F91EF90CF90089521E03A
:103DA000EFCF61E08ACF80EB93E05ACF5058BB272A
:103DB000AA270ED009C1FAD030F0FFD020F031F49C
:103DC0009F3F11F41EF4EFC00EF4E095E7FBE5C051
:103DD000E92F0BD180F3BA176207730784079507A1
:103DE00018F071F49EF523C10EF4E0950B2EBA2F56
:103DF000A02D0B01B90190010C01CA01A0011124F1
:103E0000FF27591B99F0593F50F4503E68F11A169C
:103E1000F040A22F232F342F4427585FF3CF46952D
:103E200037952795A795F0405395C9F77EF41F164F
:103E3000BA0B620B730B840BBAF09150A1F0FF0F19
:103E4000BB1F661F771F881FC2F70EC0BA0F621F05
:103E5000731F841F48F4879577956795B795F795F5
:103E60009E3F08F0B3CF9395880F08F09927EE0F87
:103E700097958795089504D06894B111D9C0089595
:103E8000BCD088F09F5790F0B92F9927B751A0F078
:103E9000D1F0660F771F881F991F1AF0BA95C9F7DE
:103EA00012C0B13081F0C3D0B1E00895C0C0672F17
:103EB000782F8827B85F39F0B93FCCF3869577958E
:103EC0006795B395D9F73EF4909580957095619577
:103ED0007F4F8F4F9F4F0895E89409C097FB3EF4A2
:103EE00090958095709561957F4F8F4F9F4F992347
:103EF000A9F0F92F96E9BB279395F69587957795C5
:103F00006795B795F111F8CFFAF4BB0F11F460FF84
:103F10001BC06F5F7F4F8F4F9F4F16C0882311F0DC
:103F200096E911C0772321F09EE8872F762F05C0F0
:103F3000662371F096E8862F70E060E02AF09A958B
:103F4000660F771F881FDAF7880F9695879597F980
:103F50000895990F0008550FAA0BE0E8FEEF16161A
:103F60001706E807F907C0F012161306E407F5076D
:103F700098F0621B730B840B950B39F40A2661F0E1
:103F8000232B242B252B21F408950A2609F4A14084
:103F9000A6958FEF811D811D089597F99F6780E891
:103FA00070E060E008959FEF80EC089500240A948B
:103FB0001616170618060906089500240A94121604
:103FC0001306140605060895092E0394000C11F437
:103FD000882352F0BB0F40F4BF2B11F460FF04C0E4
:103FE0006F5F7F4F8F4F9F4F089557FD9058440F3D
:103FF000551F59F05F3F71F04795880F97FB991F48
:1040000061F09F3F79F08795089512161306140604
:10401000551FF2CF4695F1DF08C016161706180691
:10402000991FF1CF86957105610508940895E8946C
:10403000BB2766277727CB0197F908958ADF08F415
:104040008FEF08950BD0C0CFB1DF28F0B6DF18F0A6
:10405000952309F0A2CFA7CF1124EACFC6DFA0F3A2
:10406000959FD1F3950F50E0551F629FF001729F0D
:10407000BB27F00DB11D639FAA27F00DB11DAA1F2C
:10408000649F6627B00DA11D661F829F2227B00D79
:10409000A11D621F739FB00DA11D621F839FA00D04
:1040A000611D221F749F3327A00D611D231F849F54
:1040B000600D211D822F762F6A2F11249F575040AB
:1040C0008AF0E1F088234AF0EE0FFF1FBB1F661F46
:1040D000771F881F91505040A9F79E3F510570F0FF
:1040E0005CCFA6CF5F3FECF3983EDCF386957795E7
:1040F0006795B795F795E7959F5FC1F7FE2B880FFA
:10410000911D9695879597F908950E944B2AFC0179
:10411000918D228D892F90E0805C9F4F821B9109A9
:104120008F7399270895FC01918D828D981731F036
:10413000828DE80FF11D858D90E008958FEF9FEF40
:104140000895FC01918D828D981761F0828DDF01B9
:10415000A80FB11D5D968C91928D9F5F9F73928F7A
:1041600090E008958FEF9FEF0895FC01538D448DEB
:10417000252F30E0842F90E0821B930B541710F012
:10418000CF9608950197089581E592E2892B39F041
:1041900080E090E0892B19F084D1811125C080E066
:1041A00090E0892B41F080E090E0892B21F00E9483
:1041B000000081111CC080E090E0892B41F080E07C
:1041C00090E0892B21F00E940000811113C080E053
:1041D00090E0892BA1F080E090E0892B81F00E9493
:1041E000000081110AC008950E940000D8CF0E94EB
:1041F0000000E1CF0E940000EACF0C940000089577
:10420000FC01848DDF01A80FB11DA35ABF4F2C9173
:10421000848D90E001968F739927848FA689B78942
:104220002C93A089B1898C91837080648C93938D39
:10423000848D981306C00288F389E02D80818F7DDC
:1042400080830895EF92FF920F931F93CF93DF9394
:10425000EC0181E0888F9B8D8C8D981305C0E889D7
:10426000F989808185FD25C0F62E0B8D10E00F5F4A
:104270001F4F0F731127E02E8C8DE8120BC00FB665
:1042800007FCFACFE889F989808185FFF5CFCE0157
:10429000B7DFF2CF8B8DFE01E80FF11DE35AFF4F20
:1042A000F0829FB7F8940B8FEA89FB898081806246
:1042B0000AC09FB7F894EE89FF896083E889F9897D
:1042C00080818370806480839FBF81E090E0DF9174
:1042D000CF911F910F91FF90EF900895CF93DF93AF
:1042E000EC01888D8823C1F0EA89FB89808185FDF6
:1042F00005C0A889B9898C9186FD0EC00FB607FC50
:10430000F5CF808185FFF2CFA889B9898C9185FF8F
:10431000EDCFCE0175DFE8CFDF91CF910895CF9239
:10432000DF92EF92FF921F93CF93DF93EC016A012C
:104330007B01122FE889F98982E080834115514E73
:1043400061057105A9F060E079E08DE390E0A701D7
:1043500096015DD6DA01C9010197A109B109B695A7
:10436000A795979587959C01211580E13807A0F0C6
:10437000E889F989108260E874E88EE190E0A7018D
:10438000960145D6DA01C9010197A109B109B6958F
:10439000A795979587959C01EC85FD853083EE85E3
:1043A000FF852083188EEC89FD891083EA89FB89BB
:1043B000808180618083EA89FB8980818860808335
:1043C000EA89FB89808180688083EA89FB89808112
:1043D0008F7D8083DF91CF911F91FF90EF90DF90D1
:1043E000CF9008951F920F920FB60F9211240BB623
:1043F0000F922F938F939F93EF93FF93E091160467
:10440000F09117048081E0911C04F0911D0482FD5D
:1044100012C0908180911F048F5F8F7320912004C0
:10442000821751F0E0911F04F0E0EA5FFB4F958F97
:1044300080931F0401C08081FF91EF919F918F9124
:104440002F910F900BBE0F900FBE0F901F901895DD
:104450001F920F920FB60F9211240BB60F922F934B
:104460003F934F935F936F937F938F939F93AF93FC
:10447000BF93EF93FF9386E094E0C2DEFF91EF914C
:10448000BF91AF919F918F917F916F915F914F916C
:104490003F912F910F900BBE0F900FBE0F901F906A
:1044A000189586E094E033DE21E0892B09F420E0C2
:1044B000822F0895E6E0F4E01382128288EE93E002
:1044C000A0E0B0E084839583A683B7838EE992E071
:1044D0009183808385EC90E09587848784EC90E0DD
:1044E0009787868780EC90E0918B808B81EC90E0C1
:1044F000938B828B82EC90E0958B848B86EC90E0A2
:10450000978B868B118E128E138E148E08950895BC
:104510003AD3FDDF0E94CF07C4ECD0E20E94B70877
:104520002097E1F331DEFACFCF92DF92EF92FF9244
:104530000F931F93CF93DF936C017A018B01C0E03F
:10454000D0E0CE15DF0581F0D8016D918D01D60147
:10455000ED91FC910190F081E02DC6011995892B18
:1045600011F02196EECF7E01C701DF91CF911F910F
:104570000F91FF90EF90DF90CF9008956115710536
:1045800079F0FB0101900020E9F73197AF01461B5C
:10459000570BDC01ED91FC910280F381E02D199421
:1045A00080E090E00895EF92FF920F931F93CF93D6
:1045B000DF938C017B01C0E0D0E0F701EC0FFD1F21
:1045C0006491662361F0D801ED91FC910190F08136
:1045D000E02DC8011995892B11F02196EECFCE015F
:1045E000DF91CF911F910F91FF90EF900895DB0124
:1045F00014964D915C9115976D917C91DC01ED9134
:10460000FC910280F381E02D19946CEA72E0B6CF40
:104610000F931F93CF93DF93EC01C5DF8C01CE0185
:10462000F4DF800F911FDF91CF911F910F910895BB
:104630000F931F93CF93DF93EC01D9DF8C01CE0151
:10464000E4DF800F911FDF91CF911F910F910895AB
:104650000F931F93CF93DF93EC0190DF8C01CE017A
:10466000D4DF800F911FDF91CF911F910F9108959B
:104670000895883008F06FC0A82FB0E0AA0FBB1FC4
:10468000A85FBD4F11967C936E9390E0FC0131972B
:10469000E730F10598F58827EE58FF4F8F4FD9C4C2
:1046A000809169008C7F482B40936900E89A0895B7
:1046B00080916900837F440F551F440F551F482B7D
:1046C00040936900E99A0895809169008F7C74E0B5
:1046D000440F551F7A95E1F7482B40936900EA9AF9
:1046E0000895809169008F7366E0440F551F6A95A5
:1046F000E1F7482B40936900EB9A089580916A0096
:104700008C7F482B40936A00EC9A089580916A0050
:10471000837F440F551F440F551F482B40936A0059
:10472000ED9A089580916A008F7C24E0440F551F14
:104730002A95E1F7482B40936A00EE9A08958091FC
:104740006A008F7396E0440F551F9A95E1F7482B46
:1047500040936A00EF9A08951F920F920FB60F923E
:1047600011240BB60F922F933F934F935F936F9348
:104770007F938F939F93AF93BF93EF93FF93E091BA
:104780000C02F0910D021995FF91EF91BF91AF913D
:104790009F918F917F916F915F914F913F912F9159
:1047A0000F900BBE0F900FBE0F901F9018951F9289
:1047B0000F920FB60F9211240BB60F922F933F93C7
:1047C0004F935F936F937F938F939F93AF93BF9319
:1047D000EF93FF93E0910E02F0910F021995FF9174
:1047E000EF91BF91AF919F918F917F916F915F9169
:1047F0004F913F912F910F900BBE0F900FBE0F90D6
:104800001F9018951F920F920FB60F9211240BB69E
:104810000F922F933F934F935F936F937F938F9359
:104820009F93AF93BF93EF93FF93E0911002F091AA
:1048300011021995FF91EF91BF91AF919F918F91C7
:104840007F916F915F914F913F912F910F900BBE90
:104850000F900FBE0F901F9018951F920F920FB6DA
:104860000F9211240BB60F922F933F934F935F93A8
:104870006F937F938F939F93AF93BF93EF93FF9328
:10488000E0911202F09113021995FF91EF91BF91FF
:10489000AF919F918F917F916F915F914F913F91D8
:1048A0002F910F900BBE0F900FBE0F901F90189579
:1048B0001F920F920FB60F9211240BB60F922F93E7
:1048C0003F934F935F936F937F938F939F93AF9398
:1048D000BF93EF93FF93E0910802F09109021995BD
:1048E000FF91EF91BF91AF919F918F917F916F91C8
:1048F0005F914F913F912F910F900BBE0F900FBE84
:104900000F901F9018951F920F920FB60F921124BF
:104910000BB60F922F933F934F935F936F937F93B9
:104920008F939F93AF93BF93EF93FF93E0910A020E
:10493000F0910B021995FF91EF91BF91AF919F916B
:104940008F917F916F915F914F913F912F910F9038
:104950000BBE0F900FBE0F901F9018951F920F92D5
:104960000FB60F9211240BB60F922F933F934F93D4
:104970005F936F937F938F939F93AF93BF93EF93C7
:10498000FF93E0911402F09115021995FF91EF91B8
:10499000BF91AF919F918F917F916F915F914F9157
:1049A0003F912F910F900BBE0F900FBE0F901F9055
:1049B00018951F920F920FB60F9211240BB60F92FB
:1049C0002F933F934F935F936F937F938F939F9317
:1049D000AF93BF93EF93FF93E0911602F09117020C
:1049E0001995FF91EF91BF91AF919F918F917F9119
:1049F0006F915F914F913F912F910F900BBE0F9050
:104A00000FBE0F901F9018951F920F920FB60F9226
:104A100011242F933F938F939F93AF93BF938091D4
:104A2000A4049091A504A091A604B091A70430918C
:104A3000A30423E0230F2D3720F40196A11DB11DFF
:104A400005C026E8230F0296A11DB11D2093A304E3
:104A50008093A4049093A504A093A604B093A70404
:104A60008091A8049091A904A091AA04B091AB04EC
:104A70000196A11DB11D8093A8049093A904A09351
:104A8000AA04B093AB04BF91AF919F918F913F91D6
:104A90002F910F900FBE0F901F9018952FB7F8947D
:104AA0006091A4047091A5048091A6049091A7043C
:104AB0002FBF08953FB7F8948091A8049091A9045E
:104AC000A091AA04B091AB0426B5A89B05C02F3FC6
:104AD00019F00196A11DB11D3FBFBA2FA92F982F24
:104AE0008827820F911DA11DB11DBC01CD0142E09F
:104AF000660F771F881F991F4A95D1F708958F92E7
:104B00009F92AF92BF92CF92DF92EF92FF926B0192
:104B10007C01D0DF4B015C01C114D104E104F1043C
:104B2000F1F074D2C7DFDC01CB0188199909AA0919
:104B3000BB09883E9340A105B10570F321E0C21A7C
:104B4000D108E108F10888EE880E83E0981EA11CC8
:104B5000B11CC114D104E104F10421F7DDCFFF90B1
:104B6000EF90DF90CF90BF90AF909F908F9008957F
:104B70008230910538F0880F991F880F991F05978B
:104B80000197F1F70895789484B5826084BD84B567
:104B9000816084BD85B5826085BD85B5816085BD38
:104BA000EEE6F0E0808181608083E1E8F0E0108251
:104BB000808182608083808181608083E0E8F0E092
:104BC000808181608083E1EBF0E08081846080837C
:104BD000E0EBF0E0808181608083E1E9F0E08081BA
:104BE00082608083808181608083E0E9F0E0808161
:104BF00081608083E1EAF0E080818260808380814F
:104C000081608083E0EAF0E0808181608083E1E27E
:104C1000F1E0808182608083808181608083E0E236
:104C2000F1E0808181608083EAE7F0E08081846048
:104C300080838081826080838081816080838081A5
:104C4000806880831092C100089590E0FC01319744
:104C5000E231F10508F04DC08827E758FF4F8F4F2C
:104C6000F8C1809180008F7703C0809180008F7D94
:104C700080938000089580918000877FF9CF84B56C
:104C80008F7702C084B58F7D84BD08958091B00078
:104C90008F7703C08091B0008F7D8093B00008951E
:104CA000809190008F7707C0809190008F7D03C026
:104CB00080919000877F8093900008958091A0005C
:104CC0008F7707C08091A0008F7D03C08091A000E6
:104CD000877F8093A0000895809120018F7707C07F
:104CE000809120018F7D03C080912001877F809378
:104CF00020010895CF93DF9390E0FC01E75BF44F30
:104D00002491FC01E157F44F8491882361F190E0F4
:104D1000880F991FFC01E75FF34FC591D491FC0107
:104D2000E151F44FA591B491611109C09FB7F89476
:104D30008881209582238883EC912E230BC06230DA
:104D400061F49FB7F8948881322F3095832388834C
:104D5000EC912E2B2C939FBF06C08FB7F894E8815F
:104D60002E2B28838FBFDF91CF9108951F93CF9370
:104D7000DF93282F30E0F901ED5FF44F8491F901C2
:104D8000E75BF44FD491F901E157F44FC491CC2380
:104D9000B9F0162F811159DFEC2FF0E0EE0FFF1F55
:104DA000E151F44FA591B4919FB7F894111104C04B
:104DB0008C91D095D82302C0EC91DE2BDC939FBF61
:104DC000DF91CF911F910895FC018081918100971F
:104DD00009F0F8C10895CF93DF93EC0188819981A0
:104DE000009709F0EFD1198218821D821C821B8264
:104DF0001A82DF91CF9108950F931F93CF93DF9382
:104E0000EC018B016F5F7F4F8881998164D200979D
:104E100031F0998388831B830A8381E001C080E09D
:104E2000DF91CF911F910F910895CF93DF93EC0104
:104E300088819981892B29F08A819B818617970720
:104E400058F4CE01D9DF882341F08C819D81892BD4
:104E500019F4E881F981108281E0DF91CF91089502
:104E6000EF92FF920F931F93CF93DF93EC017B019F
:104E70008A01BA01DADF811103C0CE01ACDF06C0BE
:104E80001D830C83B7018881998119D3CE01DF91ED
:104E9000CF911F910F91FF90EF900895FC01118227
:104EA000108213821282158214826115710549F0F5
:104EB000FB0101900020E9F73197AF01461B570B2A
:104EC000CFCF0895EF92FF920F931F93CF93DF936D
:104ED0006115710511F480E01AC041155105B1F05A
:104EE0007B01EC018C819D818A01080F191FB8019B
:104EF000CE019BDF882379F3288139818C819D81C4
:104F0000B701820F931FDBD21D830C8381E0DF91F9
:104F1000CF911F910F91FF90EF900895611571054A
:104F200049F0FB0101900020E9F73197AF01461BE2
:104F3000570BC8CF80E00895CF93DF931F921F9245
:104F4000CDB7DEB769831A8241E050E0BE016F5FE2
:104F50007F4FB8DF0F900F90DF91CF910895EF92C0
:104F6000FF920F931F93CF93DF9300D01F92CDB783
:104F7000DEB77C01862F4AE08E010F5F1F4FB8011C
:104F800090E0A4D2F80101900020E9F73197AF0139
:104F9000401B510BB801C70195DF0F900F900F9088
:104FA0000F90DF91CF911F910F91FF90EF90089597
:104FB000EF92FF920F931F93CF93DF93CDB7DEB79E
:104FC00028970FB6F894DEBF0FBECDBF7C01CB0192
:104FD0004AE08E010F5F1F4FB80178D2F8010190AF
:104FE0000020E9F73197AF01401B510BB801C70111
:104FF00069DF28960FB6F894DEBF0FBECDBFDF91F4
:10500000CF911F910F91FF90EF9008950895A1E225
:105010001A2EAA1BBB1BFD010DC0AA1FBB1FEE1F32
:10502000FF1FA217B307E407F50720F0A21BB30B7D
:10503000E40BF50B661F771F881F991F1A9469F7F9
:1050400060957095809590959B01AC01BD01CF0155
:105050000895EE0FFF1F881F8BBF0790F691E02D7C
:105060001994A29FB001B39FC001A39F700D811D31
:105070001124911DB29F700D811D1124911D089561
:10508000F0DFA59F900DB49F900DA49F800D911D02
:10509000112408950F931F93CF93DF9382309105CE
:1050A00010F482E090E0E091AE04F091AF0420E0D3
:1050B00030E0A0E0B0E0309719F1408151810281E9
:1050C000138148175907C8F08417950769F410979A
:1050D00031F012960C93129713961C9327C00093ED
:1050E000AE041093AF0422C02115310519F0421708
:1050F000530718F49A01BD01EF01DF01F801DBCF7E
:1051000021153105F9F0281B390B2430310580F4C5
:105110008A819B816115710521F0FB019383828354
:1051200004C09093AF048093AE04FE01329644C055
:10513000FE01E20FF31F81939193225031093983CD
:1051400028833AC02091AC043091AD04232B41F464
:1051500020910202309103023093AD042093AC04FD
:1051600020910002309101022115310541F42DB743
:105170003EB74091040250910502241B350BE0918B
:10518000AC04F091AD04E217F307A0F42E1B3F0B23
:105190002817390778F0AC014E5F5F4F24173507A9
:1051A00048F04E0F5F1F5093AD044093AC048193C1
:1051B000919302C0E0E0F0E0CF01DF91CF911F9129
:1051C0000F910895CF93DF93009709F481C0FC01FC
:1051D000329713821282A091AE04B091AF0410975F
:1051E00081F420813181820F931F2091AC04309192
:1051F000AD042817390751F5F093AD04E093AC04E2
:1052000067C0ED0120E030E0CE17DF0740F44A81AF
:105210005B819E0141155105F1F0EA01F5CFD38381
:10522000C28340815181840F951FC817D90759F453
:1052300088819981840F951F0296918380838A814A
:105240009B81938382832115310529F4F093AF0468
:10525000E093AE043DC0E901FB83EA834991599193
:10526000C40FD51FEC17FD0761F480819181840F75
:10527000951F0296E90199838883828193819B839C
:105280008A83E0E0F0E012968D919C91139700974D
:1052900019F0FD01DC01F7CF8D919C9111979D01D3
:1052A0002E5F3F4F820F931F2091AC043091AD04CD
:1052B0002817390769F4309729F41092AF04109237
:1052C000AE0402C013821282B093AD04A093AC046A
:1052D000DF91CF9108956F927F928F929F92AF92BC
:1052E000BF92CF92DF92EF92FF920F931F93CF93D3
:1052F000DF93009781F4CB01DF91CF911F910F9144
:10530000FF90EF90DF90CF90BF90AF909F908F90E5
:105310007F906F90BFCEFC01E60FF71F9C012250DB
:105320003109E217F30708F4A5C0EC01D9010D918A
:105330001C91119706171707A8F00530110508F4FE
:1053400097C0C80104978617970708F491C00250C8
:105350001109061B170B019311936D937C93CF01D9
:1053600031DF86C05B01A01AB10A4C01800E911E8C
:10537000A091AE04B091AF04612C712CE12CF12C02
:10538000109709F446C08D919C911197A815B90505
:10539000B1F56C0142E0C40ED11CCA14DB0478F1F3
:1053A0004C018A189B08640142E0C40ED11C12967D
:1053B000BC9012971396AC91B5E0CB16D10440F097
:1053C000B282A38391828082D9016D937C9309C0BC
:1053D0000E5F1F4F800F911FF90191838083EB2D8A
:1053E000FA2FE114F10431F0D7011396FC93EE93F8
:1053F00012973EC0F093AF04E093AE0439C0681634
:10540000790608F43C017D0112960D90BC91A02D07
:10541000B7CF8091AC049091AD0488169906E1F461
:1054200066167706C8F480910002909101020097F9
:1054300041F48DB79EB74091040250910502841B40
:10544000950BE817F907B0F4F093AD04E093AC04C2
:10545000F901718360830CC0CB011CDE7C010097D5
:1054600049F0A801BE011BD0CE01ACDEC70104C0CB
:10547000CE0102C080E090E0DF91CF911F910F91AB
:10548000FF90EF90DF90CF90BF90AF909F908F9064
:105490007F906F90089581E090E0F8944AC0FB01FE
:1054A000DC0102C001900D9241505040D8F70895A0
:1054B000DC0101C06D9341505040E0F70895FB01BD
:1054C000DC0101900D920020E1F70895BB274A30DE
:1054D00031F4992322F4BDE2909581959F4F01C04C
:1054E000BB27FB015527AA27880F991FAA1FA417BE
:1054F00010F0A41B83955051B9F7A05DAA3308F0B2
:10550000A95DA193009779F7B111B1931192CB01E5
:1055100000C0DC01FC01672F71917723E1F732971E
:1055200004C07C916D9370836291AE17BF07C8F37E
:10553000089516E0C5E1D6E000E005C0802FFE0129
:1055400088DD2196011DC631D10780E00807B1F73B
:04555000F894FFCFFD
:105554000000B0042000D007382338233823382330
:105564003823382338233823427574746F6E2070BF
:10557400726573736564003A0054656D703A200077
:1055840000000000880F9422F809FB098520DC0A3A
:10559400AD0ACC0AB40AC00AFC09DC0A7E0C7D0CF4
:1055A400DD0A160B4F0B940BB10B1E0C0000000010
:1055B400880F9422F809FB096B10DC0AAD0ACC0AA7
:1055C400B40AC00AFC09DC0A7E0CDF111116D215DC
:1055D4004F0B940BB10B1E0C00000000021ED61DD5
:1055E400F8099F1D741D7C1D901D000000002221E0
:1055F4009422B5206E218720A12093200D0A006EED
:0C560400616E00696E66006F7666000043
:00000001FF
