S01600004D656761323536304D61737465722E737265635B
S113000008C600000C94E21F0C940D200C943820B8
S11300100C9463200C948E200C94B9200C94E4204E
S11300200C940F2127C6000025C6000023C600003B
S113003021C600001FC600001DC600001BC600002C
S113004019C6000017C6000015C6000013C600003C
S113005011C600000FC600000DC600000C943A2122
S113006009C600000C948F1D0C94C51D03C6000026
S113007001C60000FFC50000FDC50000FBC500006F
S1130080F9C50000F7C50000F5C50000F3C5000080
S1130090F1C50000EFC50000EDC500000C949219F5
S11300A0E9C50000E7C50000E5C50000E3C50000A0
S11300B0E1C50000DFC50000DDC50000DBC50000B0
S11300C0D9C50000D7C50000D5C50000D3C50000C0
S11300D0D1C50000CFC50000CDC50000CBC50000D0
S11300E0C9C50000BC1F861F8E1F9A1FA71FC81FEB
S11300F0D51F6A226D225C2260226622A42271220C
S113010075227B227F22832289228D229122A4229E
S113011097229B229F221F1C1F1E1F1E1F1F1E1F74
S11301201E1F5353443133303620616C6C6F63614E
S113013074696F6E206661696C656400000000007C
S1130140003E5B4F5B3E3E6B4F6B3E1C3E7C3E1C59
S1130150183C7E3C181C577D571C1C5E7F5E1C009F
S1130160183C1800FFE7C3E7FF0018241800FFE756
S1130170DBE7FF30483A060E2629792926407F0519
S11301800507407F05253F5A3CE73C5A7F3E1C1C2F
S113019008081C1C3E7F14227F22145F5F005F5FEF
S11301A006097F017F006689956A606060606094DB
S11301B0A2FFA29408047E040810207E20100808E0
S11301C02A1C08081C2A08081E101010100C1E0CEB
S11301D01E0C30383E3830060E3E0E06000000007D
S11301E00000005F00000007000700147F147F1464
S11301F0242A7F2A122313086462364956205000A9
S113020008070300001C2241000041221C002A1C94
S11302107F1C2A08083E080800807030000808087F
S11302200808000060600020100804023E5149459F
S11302303E00427F400072494949462141494D33BD
S11302401814127F1027454545393C4A4949314124
S1130250211109073649494936464949291E0000F2
S11302601400000040340000000814224114141447
S11302701414004122140802015909063E415D5933
S11302804E7C1211127C7F494949363E414141223C
S11302907F4141413E7F494949417F090909013E66
S11302A0414151737F0808087F00417F410020408D
S11302B0413F017F081422417F404040407F021C9F
S11302C0027F7F0408107F3E4141413E7F090909B6
S11302D0063E4151215E7F09192946264949493282
S11302E003017F01033F4040403F1F2040201F3F48
S11302F04038403F631408146303047804036159CD
S1130300494D43007F41414102040810200041410E
S1130310417F0402010204404040404000030708BA
S11303200020545478407F284444383844444428B6
S1130330384444287F385454541800087E0902185D
S1130340A4A49C787F0804047800447D40002040E5
S1130350403D007F1028440000417F40007C047829
S113036004787C080404783844444438FC18242471
S11303701818242418FC7C080404084854545424F1
S113038004043F44243C4040207C1C2040201C3C6E
S11303904030403C44281028444C9090907C446465
S11303A0544C4400083641000000770000004136F8
S11303B0080002010204023C2623263C1EA1A1617E
S11303C0123A4040207A38545455592155557941B0
S11303D02254547842215554784020545579400C85
S11303E01E52721239555555593954545459395568
S11303F05454580000457C410002457D42000145AB
S11304007C407D1211127DF0282528F07C5455453E
S1130410002054547C547C0A097F493249494932AA
S11304203A4444443A324A4848303A4141217A3ABB
S113043042402078009DA0A07D3D4242423D3D4087
S113044040403D3C24FF2424487E4943662B2FFC36
S11304502F2BFF0929F620C0887E090320545479E4
S1130460410000447D413048484A32384040227AB5
S1130470007A0A0A727D0D19317D2629292F282632
S11304802929292630484D4020380808080808083A
S11304900808382F10C8ACBA2F102834FA00007B93
S11304A0000008142A142222142A140855005500A6
S11304B055AA55AA55AAFF55FF55FF000000FF0095
S11304C0101010FF00141414FF001010FF00FF1090
S11304D010F010F0141414FC001414F700FF0000C2
S11304E0FF00FF1414F404FC141417101F10101F41
S11304F0101F1414141F00101010F0000000001F2F
S1130500101010101F10101010F010000000FF1039
S11305101010101010101010FF10000000FF140035
S113052000FF00FF00001F10170000FC04F4141467
S11305301710171414F404F40000FF00F714141433
S113054014141414F700F7141414171410101F10B3
S11305501F141414F4141010F010F000001F101FD6
S11305600000001F14000000FC140000F010F01044
S113057010FF10FF141414FF141010101F000000BB
S113058000F010FFFFFFFFFFF0F0F0F0F0FFFFFFBF
S11305900000000000FFFF0F0F0F0F0F3844443816
S11305A044FC4A4A4A347E02020606027E027E0265
S11305B063554941633844443C04407E201E200670
S11305C0027E020299A5E7A5991C2A492A1C4C72AD
S11305D001724C304A4D4D303048784830BC625A34
S11305E0463D3E494949007E0101017E2A2A2A2AC4
S11305F02A44445F444440514A444040444A5140A0
S11306000000FF0103E080FF000008086B6B083660
S113061012362436060F090F0600001818000000D1
S11306201010003040FF0101001F01011E00191DC0
S11306301712003C3C3C3C00000000002200FF215B
S113064000000103070F1F3F7F0080C0E0F0F8FCAB
S1130650FEDB40A4A62EAF2000A1C8D300408DAE7F
S1130660D580A80000600000000000000000000029
S113067000000000E0000000000000000000000096
S1130680000001E000000000000000000000000085
S11306900001F00000000000000000000000000065
S11306A003F000000000000000000000000000074C
S11306B0F00000000000000000000000000007F847
S11306C0000000000000000000000000000FF8001F
S11306D0000003C0007E000001E0007F0FF800006E
S11306E00003C000FE000001E000FFEFF80000007E
S11306F003C000FE000001E000FFFFF8000000035B
S1130700C000F00000000F007FFE7FC0000003C0A7
S113071000F00000000F003FFE7FF83FF1FBCFFC2C
S1130720FEF3BC3DEFE01FFE7FFF7FFBFFDFFEFE1D
S1130730FFBC3DEFE01FC6FFFF7FFBFFDFFEFEFFB8
S1130740BC3DEFE00FE3C7FE787BC3DE1EF0FFBCC9
S11307503DEF0007FF87FC787BC3DE1EF0F83C3DCD
S1130760EF0001FFFFF0007BC3C01EF0F03C3DEF43
S11307700001F37FE03FFBC3CFFEF0F03C3DEF0010
S113078003E33F807FFBC3DFFEF0F03C3DEF000757
S1130790E73C00787BC3DE1EF0F03C3DEF0007FF32
S11307A0BE00787BC3DE1EF0F03C3DEF0007FFFE89
S11307B000787BC3DE1EF0F03C3DEF000FFFFE002F
S11307C07FFBFFDFFEF0F03FFDEFE00FFFFF007F58
S11307D0FBFFDFFEF0F03FFDEFE00FF9FF003E7995
S11307E0F9CF9EF0F01F3DE7E01FF1FF000000008D
S11307F000000000000000001F80FF007FFFFFFFDB
S1130800FFFFFFFFFFFFE01C007F007FFFFFFFFEF5
S1130810B46D888D18E000001F007FFFFFFFFE9578
S1130820AD7DB577E000000F007FFFFFFFFEA5ADB3
S11308309D8D19E0000006007FFFFFFFFEB5ADEDC2
S1130840B57EE00000000000018000000000000010
S1130850000000038000000000000000000007C04A
S113086000000000000000000007C00000000000BD
S1130870000000000FC00000000000000000001F86
S1130880E00000000000000000001FE00000000085
S113089000000000003FE000000000000000000035
S11308A03FF00000000000000000007FF0000000A6
S11308B0000000001FF87FF0000000000000003F6F
S11308C0FE7FF0000000000000003FFF7FF000000A
S11308D000000000001FFFFBE0000000000000001B
S11308E00FFFF9FFC00000000000000FFFF9FFF840
S11308F000000000000007FFF1FFFF0000000000FF
S11309000003FC73FFFF80000000000001FE3FFFB6
S1130910FF80000000000000FF1E0FFF0000000029
S11309200000007FFE1FFC000000000000003FFFED
S1130930FFF8000000000000000FDFFFE0000000EF
S1130940000000001F19FFC0000000000000003F6D
S11309503CFF00000000000000007E7CF800000066
S113096000000000007FFE7C00000000000000008A
S1130970FFFFFC0000000000000000FFFFFE00007D
S1130980000000000000FFFFFE0000000000000067
S113099001FFEFFE0000000000000001FFCFFE0099
S11309A000000000000003FF07FE0000000000003C
S11309B00003FC07FE0000000000000003F003FE3B
S11309C000000000000000018000FE0000000000A4
S11309D000000000007E0000000000000000000095
S11309E03E000000000000000000000C00000000B9
S11309F00000078000FC000003C000000007800125
S1130A00FC000003C0000000078001FC000003C0DC
S1130A10000000078001E00000001E0000000780C5
S1130A2001E00000001E007FE3F79FF9FDE7787BFB
S1130A30DFC0FFF7FFBFFDFDFF787BDFC0FFF7FFDF
S1130A40BFFDFDFF787BDFC0F0F787BC3DE1FF7899
S1130A507BDE00F0F787BC3DE1F0787BDE0000F739
S1130A6087803DE1E0787BDE007FF7879FFDE1E052
S1130A70787BDE00FFF787BFFDE1E0787BDE00F0E6
S1130A80F787BC3DE1E0787BDE00F0F787BC3DE111
S1130A90E0787BDE00F0F787BC3DE1E0787BDE00A8
S1130AA0FFF7FFBFFDE1E07FFBDFC0FFF7FFBFFD06
S1130AB0E1E07FFBDFC07CF3F39F3DE1E03E7BCFD1
S1130AC0C00000000000000000000000FFFFFFFF66
S1130AD0FFFFFFFFFFFFC0FFFFFFFFFD68DB111AF1
S1130AE031C0FFFFFFFFFD2B5AFB6AEFC0FFFFFF82
S1130AF0FFFD4B5B3B1A33C0FFFFFFFFFD6B5BDB6E
S1130B006AFDC000000A0B02090C0D0E080703045D
S1130B1001000000000000000000000000000000D0
S1130B2000000000000000000000000000000012AF
S1130B301110000000000000000000000000000090
S1130B40000000000000000000010210202008083E
S1130B50102040102040800201020108040201011B
S1130B600204081020408080402010080402018004
S1130B70040201804020100804020108040201015B
S1130B80020408102040800102040810204080055F
S1130B90050505070508080808020202020A0A08F2
S1130BA00804040404010101010101010103030318
S1130BB00303030303040707070C0C0C0C0C0C0CB5
S1130BC00C0202020206060606060606060B0B0BBC
S1130BD00B0B0B0B0B00002200250028002B002E12
S1130BE0003100340002010000050108010B01007E
S1130BF0002100240027002A002D003000330001CA
S1130C00010000040107010A010028091F1CF71D47
S1130C10510911241FBECFEFD1E2DEBFCDBF00E0EA
S1130C200CBF12E0A0E0B2E0EAEAFDE400E00BBF92
S1130C3002C007900D92AC3AB107D9F724E0ACEAB0
S1130C40B2E001C01D92A938B207E1F716E0C8E08E
S1130C50D6E000E006C021970109802FFE010E9422
S1130C605424C530D10780E00807A9F70E94251E47
S1130C700C94C426C5C9DC01ED91FC910190F0816E
S1130C80E02D1994DB01A05DB74030E0E6E1F1E02E
S1130C9081E0841730F49491290F311D8F5F3196D0
S1130CA0F8CF423029F4CD0183709927892BA9F01C
S1130CB06D5C774076956795769567954DE651E03E
S1130CC0A49FC001A59F900DB49F900D1124860F81
S1130CD0971F0197820F931F08952F5F3F4FE8CF0F
S1130CE01F93CF93DF93FC01C681D581148160816A
S1130CF0718123814281C6DF9C01A8E1B0E00E949A
S1130D005C249B01AC01210F311D411D511DACE33D
S1130D10B0E00E946B249B01AC012D0F311D411DDD
S1130D20511D0E946B24DC01CB018C0F911DA11D70
S1130D30B11DBC01CD0160597A4C8249974CDF91B9
S1130D40CF911F910895CF93DF93D62FC42F68E6D8
S1130D5070E089E893E00E94A81B6D2F89E893E076
S1130D600E944E1B6C2F89E893E00E944E1B89E879
S1130D7093E0DF91CF910C941D1CAF92BF92CF9260
S1130D80DF92EF92FF920F931F93CF93DF93CDB730
S1130D90DEB72E970FB6F894DEBF0FBECDBF7C0131
S1130DA08B0168E670E089E893E00E94A81B60E08C
S1130DB070E089E893E05FDF89E893E00E941D1CFE
S1130DC047E050E068E670E089E893E00E941B1C6D
S1130DD089E893E00E94C01A892BD1F35E012FE0C9
S1130DE0A20EB11CCE0101966C0189E893E00E9429
S1130DF0C81A982F92959F708F70EAE09E9F800D7D
S1130E00112490E0F501929382935F01EC15FD05A6
S1130E1061F789E893E00E941D1C89819A818053BF
S1130E20984FF801918380838B8182838D818383A2
S1130E308F818783898584838B8585838D8586834C
S1130E40C8014EDFF80160877187828793878CE041
S1130E50D70101900D928A95E1F7C7012E960FB63E
S1130E60F894DEBF0FBECDBFDF91CF911F910F91DC
S1130E70FF90EF90DF90CF90BF90AF900895CF9305
S1130E80C62F68E670E089E893E00E94A81B6C2FE7
S1130E9089E893E00E944E1B89E893E00E941D1CA0
S1130EA041E050E068E670E089E893E00E941B1C92
S1130EB089E893E00E94C01A892BD1F389E893E072
S1130EC00E94C81AC82F89E893E00E941D1C8C2F29
S1130ED0CF9108950F931F93CF93DF93EC01162FB7
S1130EE0042F6EE0CCDF002311F0806401C08F7BFF
S1130EF0482F112311F04B7701C040686EE0CE01FA
S1130F00DF91CF911F910F911ECFCF93DF93EC010F
S1130F1089E893E00E948C1B40E061E0CE01DADFB7
S1130F2080ED97E09983888381E08A838B831C8298
S1130F301D821E8286E08F8380E795E3ADE6B8E3E9
S1130F4088879987AA87BB8781E0DF91CF9108952D
S1130F5081E08093B80208950F9326E040E052ECBC
S1130F6061E070E08FED93E00E942C1D80911303EB
S1130F70882399F02FB7F89480911303813059F4A2
S1130F808DB3809311039DB38091120380958923BF
S1130F908DBB2FBF02C02093110380E58CBD1DBC07
S1130FA00E94C41685EC92E0B0DF01E021E04CE33E
S1130FB062E081ED92E00E947712811107C062E243
S1130FC071E08FED93E00E94AC1EFFCF62E083E0FE
S1130FD00E94A52241E050E068EA77E081E00F91A9
S1130FE00C946F1FCF92DF92EF92FF920F931F9397
S1130FF0CF93DF93CDB7DEB72C970FB6F894DEBF4F
S11310000FBECDBF8C010E948421C090B402D09049
S1131010B502E090B602F090B702AB01BC014C19E6
S11310205D096E097F09809106029091070297FD80
S1131030019695958795092E000CAA0BBB0B4817B2
S113104059076A077B07C0F00E9484216093B402A9
S11310507093B5028093B6029093B70265EC72E088
S1131060CE0101968ADE8CE0FE013196A9EBB2E056
S113107001900D928A95E1F70E948421C090AC0200
S1131080D090AD02E090AE02F090AF02AB01BC0193
S11310904C195D096E097F092091060230910702FF
S11310A0E5E0E29FC001E39F900D1124092E000C9E
S11310B0AA0BBB0B481759076A077B0710F010925D
S11310C0B8026FE972E0C8010E9479236091BD0201
S11310D0C8010E94DA2368E172E0C8010E94B923C2
S11310E06091BE02C8010E94DA2368E172E0C8017F
S11310F00E94B9236091BF02C8010E94DA23C8018B
S11311002C960FB6F894DEBF0FBECDBFDF91CF9102
S11311101F910F91FF90EF90DF90CF9008950F9360
S11311201F93CF93DF9300D000D0CDB7DEB781ED0E
S113113092E00E94591261E081ED92E051D781E082
S113114090E09093E4028093E3029093E202809310
S1131150E1021092DE021092DD021092E00210927F
S1131160DF028091B802882321F0CE0101963ADF94
S113117055C00E9484210091B0021091B1022091C7
S1131180B2023091B302AB01BC01401B510B620BA4
S1131190730B8091060290910702092E000CAA0B92
S11311A0BB0B481759076A077B0708F442C00E9423
S11311B084216093B0027093B1028093B202909341
S11311C0B30260E085E30E94E122809100008EBDBD
S11311D000000DB407FEFDCF8EB560910000709144
S11311E001004AE050E08FED93E00E945E1F61E051
S11311F085E30E94E1226AE172E0CE0101960E9439
S113120079236091000070910100CE0101960E9443
S1131210032467EFCE0101960E94C723BE016F5FCE
S11312207F4F81ED92E00E94BC1ECE0101960E9488
S11312300F2381ED92E00E94DB1526960FB6F894F9
S1131240DEBF0FBECDBFDF91CF911F910F910895E7
S11312508F929F92AF92BF92CF92DF92EF92FF92C2
S11312600F9380EA882E86E8982EAA24A394B12CA2
S113127090E8C92E9AE1D92E96E0E92EF12C04E0EB
S113128029E833E040E460E881ED92E06FD70F9104
S1131290FF90EF90DF90CF90BF90AF909F908F9092
S11312A0089581ED92E0ACC720911303222399F0B5
S11312B04FB7F89420911303213059F42DB32093A0
S11312C011033DB320911203209523232DBB4FBF5F
S11312D002C0409311038CBD9DBD089580911303FA
S11312E0882361F09FB7F894209113038091110330
S11312F0213019F48DBB9FBF08958FBF089580E0FE
S113130090E0089508952F923F924F925F926F92CA
S11313107F928F929F92AF92BF92CF92DF92EF9281
S1131320FF920F931F93CF93DF9300D000D0CDB7DC
S1131330DEB72C017E836D836A015901C801FC82EA
S1131340EB824801841A950A97FE03C09194819414
S1131350910835012D813E81621A730A77FE03C01C
S1131360719461947108681479045CF43A2D2B2DFE
S11313705C01832F922F3D812E81DE82CD82C32E8C
S1131380D22EAD81BE81AA16BB065CF43C2D2D2D58
S11313906C01832F922F3D812E81BE82AD82A32EBC
S11313A0B22E85012D813E81021B130B1C012C18CA
S11313B03D0837FE03C0319421943108780117FFAA
S11313C003C03FEFE31AF30AF594E794C816D9066D
S11313D02CF08FEF9FEF9A83898304C0A1E0B0E0E3
S11313E0BA83A9832D813E81A216B30624F1D201CA
S11313F0ED91FC910484F585E02D2B813C816814EA
S1131400790424F44D815E81B60103C0A6016D8187
S11314107E81C2011995E218F308F7FE06C02981FE
S11314203A81C20ED31EE00EF11E8D819E8101967B
S11314309E838D83D7CF26960FB6F894DEBF0FBE5A
S1131440CDBFDF91CF911F910F91FF90EF90DF906F
S1131450CF90BF90AF909F908F907F906F905F9050
S11314604F903F902F900895DC01ED91FC91008402
S1131470F185E02D19940F931F93DC01ED91FC91FC
S1131480048CF58DE02D19951F910F9108950F93FC
S11314901F93DC01ED91FC91068CF78DE02D1995DD
S11314A01F910F910895EF92FF920F931F93DC0108
S11314B0ED91FC9100A0F1A1E02D19951F910F91E0
S11314C0FF90EF90089508958F929F92AF92BF92EC
S11314D0CF92DF92EF92FF920F931F93CF93DF93FC
S11314E0EC015B014A0169017801E881F981028418
S11314F0F385E02D1995C80CD91C860101501109FA
S1131500E881F9810488F589E02D9501A401B501EC
S1131510CE011995E881F9810688F789E02DCE017D
S1131520DF91CF911F910F91FF90EF90DF90CF90BB
S1131530BF90AF909F908F9019948F929F92AF928B
S1131540BF92CF92DF92EF92FF920F931F93CF93AC
S1131550DF93EC015B014A016901E881F9810284AE
S1131560F385E02D199595012C0D3D1D2150310970
S1131570E881F9810488F589E02D78018401A401CA
S1131580B501CE011995E881F9810688F789E02D26
S1131590CE01DF91CF911F910F91FF90EF90DF90DB
S11315A0CF90BF90AF909F908F9019944F925F927D
S11315B06F927F928F929F92AF92BF92CF92DF925F
S11315C0EF92FF920F931F93CF93DF936C012B0144
S11315D05A0139014801DC01ED91FC910284F38543
S11315E0E02D1995E201640C751CD601ED91FC9176
S11315F0C615D7055CF40088F189E02D87019401B4
S1131600A501BE01C60119952196EFCF0688F78979
S1131610E02DC601DF91CF911F910F91FF90EF90C4
S1131620DF90CF90BF90AF909F908F907F906F90FE
S11316305F904F901994EF92FF920F931F93DC01E8
S11316401A960D911C911B9718962D913C91199700
S1131650ED91FC9100A0F1A1E02D7B0140E050E070
S113166060E070E019951F910F91FF90EF9008953D
S11316708F929F92AF92BF92CF92DF92EF92FF929E
S11316800F931F93CF93DF934C016B015A01E90130
S1131690DC01ED91FC916217730781F404171507BF
S11316A024F48B2D5801042F182F0A191B099801B3
S11316B02F5F3F4F048CF58DE02D12C0401751076A
S11316C009F52617370724F48D2D6901C62FD82F65
S11316D09E012C193D092F5F3F4F068CF78DE02D9D
S11316E08701A501B601C4011995DF91CF911F911E
S11316F00F91FF90EF90DF90CF90BF90AF909F90AD
S11317008F9008950284F385E02D1995D401ED910D
S1131710FC910488F589E02D9E01A501B601C40160
S11317201995D401ED91FC910688F789E02DC40147
S1131730DF91CF911F910F91FF90EF90DF90CF90A9
S1131740BF90AF909F908F9019946F927F928F92D9
S11317509F92AF92BF92CF92DF92EF92FF920F933C
S11317601F93CF93DF93EC014B015A0169013801B8
S1131770E881F9810284F385E02D1995E881F981E6
S11317800288F389E02D87019601A501B401CE01F9
S11317901995A501460D571D41505109E881F9815C
S11317A00288F389E02D9601B401CE011995E881F0
S11317B0F9810088F189E02D9301A501B401CE01DE
S11317C01995C80CD91CB60161507109E881F981D9
S11317D00088F189E02D9301A501CE011995E881D6
S11317E0F9810688F789E02DCE01DF91CF911F9111
S11317F00F91FF90EF90DF90CF90BF90AF909F90AC
S11318008F907F906F9019940895FC016370668B9C
S11318108481958126813781613039F0633029F0E4
S1131820918780873387228708953187208793871C
S113183082870895FC011382128285E292E09183EB
S11318408083758364835783468371876087538756
S11318504287168A158614861786168681E0858B3C
S1131860848B2FEF3FEF338B228B318B208B878B35
S1131870108E128E118E08953F924F925F926F9246
S11318807F928F929F92AF92BF92CF92DF92EF920C
S1131890FF920F931F93CF93DF93CDB7DEB72A97B1
S11318A00FB6F894DEBF0FBECDBF5C017E836D839F
S11318B058874F8329013701DC01ED91FC910284A3
S11318C0F385E02D1995C801079697FD07969C01AD
S11318D093E0359527959A95E1F73A832983812CEE
S11318E0912CE12CF12C312C8F8198858E0D9F1D2C
S11318F09C838B83E614F7040CF03DC01A8619868A
S1131900A985BA85A017B10774F5CD018770992709
S1131910892B11F0330C0EC0E985FA85F7FD379653
S113192083E0F595E7958A95E1F7E80DF91DE40D57
S1131930F51D349037FE11C0D501ED91FC9104845E
S1131940F585E02D96014B815C816D817E818985D1
S11319509A85680F791FC5011995A985BA851196CD
S1131960BA87A987CDCFBFEFEB1AFB0A29813A8149
S1131970820E931EB9CFD501ED91FC910688F789AB
S1131980E02DC5012A960FB6F894DEBF0FBECDBF79
S1131990DF91CF911F910F91FF90EF90DF90CF9047
S11319A0BF90AF909F908F907F906F905F904F907B
S11319B03F9019942F923F924F925F926F927F9231
S11319C08F929F92AF92BF92CF92DF92EF92FF924B
S11319D00F931F93CF93DF93CDB7DEB76B970FB6FB
S11319E0F894DEBF0FBECDBF9B8F8A8F2B015A8325
S11319F04983D22E198708874701AB82DC015996A7
S1131A002D913C915A972115310509F000C1189682
S1131A108D919C911997681779070CF0E7C11A9674
S1131A208D919C911B97481759070CF0DFC12C2C02
S1131A30312CFB0126E0C29EE00DF11D1124FD872F
S1131A40EC871E161F060CF0D1C14A2D50E05B87AF
S1131A504A8783E0440F551F8A95E1F75F874E87D5
S1131A6089819A81840F951F181619060CF0BEC13E
S1131A7058968C91811104C06FEA6D1508F4D394C3
S1131A80AA8DBB8DED91FC9111970284F385E02D15
S1131A90CD011995B5E0DB9EC0011124EC2DF0E0D9
S1131AA0F98BE88B92012B5F3F4F3B8B2A8B3201E2
S1131AB05D824C82AC01441955095D8B4C8B7B8152
S1131AC0672F70E07F8B6E8B89819A810896998F3E
S1131AD0888FEC89FD89E60DF71DE45CFE4FD490F8
S1131AE0A981BA81BF83AE835D01D0FE16C0AA8DE1
S1131AF0BB8DED91FC91B1E0CB1209C02B8121305B
S1131B0031F40484F585E02D2885398519C00684CF
S1131B10F785E02DE884F9841DC04885598548156A
S1131B20590511F1AA8DBB8DED91FC91B1E0CB1259
S1131B300DC02B81213051F40484F585E02D9401EE
S1131B40A501B3018A8D9B8D19950EC00684F78576
S1131B50E02D74010A851B8591014E815F816C81A2
S1131B607D818A8D9B8D1995D6944E815F816E8976
S1131B707F89460F571F5F834E837FEFA71AB70AEB
S1131B80888D998DA816B90609F0AFCFAC81BD81B7
S1131B90E889F989AE0FBF1FBD83AC83FFEF6F1ACD
S1131BA07F0A2A893B896216730609F092CF488519
S1131BB059854815590509F4F7C0AA8DBB8DED91D7
S1131BC0FC91B1E0CB1212C02B81213079F4B20127
S1131BD06B5F7F4F0088F189E02D840128E030E0BD
S1131BE049815A818A8D9B8D1995DEC06C857D85CE
S1131BF0621973090684F785E02D74010E851F852B
S1131C00910149815A818A8D9B8D1995CDC0F90125
S1131C103496E491DE1AF901329685919491B7E0F5
S1131C20DB9E800D911D1124F90125913491398B8E
S1131C30288BFC0125903490FC01329674903196E7
S1131C40A490329694903196B49031E03C1518F0FB
S1131C504B81423068F0692D092C000C770B7D8391
S1131C606C838B2D0B2C000C990B9F838E8304C0EB
S1131C701F821E821D821C82AA8DBB8DED91FC9158
S1131C8011970284F385E02DCD011995612CD12C97
S1131C90812CFB81EF2FF0E0FB87EA872C2D30E0CD
S1131CA03D872C8749815A814B0D511DB7FC5A95AC
S1131CB05D8B4C8BB201690D711D97FC7A957F8BFE
S1131CC06E8B8A1408F070C0282D30E04E815F813D
S1131CD0420F531FAA85BB85A49FC001A59F900DE9
S1131CE0B49F900D1124E981FA81E80FF91FFF8751
S1131CF0EE87862D912C4C895D89420F531F5B8B97
S1131D004A8B971408F04DC0BB24B394B80E877067
S1131D1041F4C1010196E889F989E20DF31DD490DB
S1131D201C01D7FE3AC051E0C51216C06B81613068
S1131D3099F4AA8DBB8DED91FC9111970484F585DE
S1131D40E02D288539854A895B896E897F89690DEB
S1131D50711DCD01199521C08C819D81890D911D25
S1131D60EC85FD858E9FB0018F9F700D9E9F700D39
S1131D701124640D751DAA8DBB8DED91FC911197F5
S1131D800684F785E02DE884F9840A851B852C8573
S1131D903D854E855F85CD011995DD0C93948B2D82
S1131DA0B0CF670C83948DCFAA8DBB8DED91FC9140
S1131DB011970688F789E02DCD016B960FB6F8943C
S1131DC0DEBF0FBECDBFDF91CF911F910F91FF906A
S1131DD0EF90DF90CF90BF90AF909F908F907F90C7
S1131DE06F905F904F903F902F9019946B960FB621
S1131DF0F894DEBF0FBECDBFDF91CF911F910F913D
S1131E00FF90EF90DF90CF90BF90AF909F908F9016
S1131E107F906F905F904F903F902F9008958F9296
S1131E209F92AF92CF92EF92FF920F931F93CF9313
S1131E30DF93EC01262F898D9A8D009709F041C01C
S1131E406A3059F41D861C862D898E859F8538E05D
S1131E50239F800D911D112442C06D3009F4A8C048
S1131E608F898823C9F03C898C859D8546E0349F01
S1131E70800D911D1124488559854817590764F42C
S1131E801D861C863D898E859F8548E0349F800D84
S1131E90911D11249F878E87EA88FB8808891989F8
S1131EA04E855F856C857D85AD88CC88CE0182DDCD
S1131EB02C898C859D8536E0239F800D911D1124EE
S1131EC03EC06A3079F41D861C862D89FC01389643
S1131ED0E4918E859F852E9F800D911D11249F87EF
S1131EE08E8766C06D3009F463C0FC01349634916A
S1131EF0631708F45DC03296E491E61708F458C0FD
S1131F00462F431B342FFC0132968590949047E072
S1131F10349F800C911C1124F40132963491319633
S1131F20E491332311F0E1110DC0F4013496E491EE
S1131F302C898C859D85E29F800D911D11249D87A0
S1131F408C8736C0F401359644915F89552319F185
S1131F505C89E32FF0E0E40FF11D47FDFA955E9FE5
S1131F60B0015F9F700D11244C855D85460F571F8E
S1131F70688579856417750774F41D861C863D8908
S1131F80FC013896E4918E859F853E9F800D911DBE
S1131F9011249F878E87EA88FB88088919894E85D2
S1131FA05F856C857D85AD88CC88CE0103DDBDCF92
S1131FB081E090E0DF91CF911F910F91FF90EF901E
S1131FC0CF90AF909F908F900895611101C061E010
S1131FD0FC01648B411101C041E0FC01458B089573
S1131FE0462FF3CFFC0177FDB9C080859185681732
S1131FF079070CF0B3C057FDB1C0828593854817AB
S113200059070CF008958689823079F4848195818A
S1132010DC01A61BB70BBD01615071098681978154
S1132020DC01A41BB50BAD010EC0833009F084C0E4
S113203064277527CA018627972768277927468149
S11320405781481B590B415051092130310531F05A
S113205048F12230310509F44AC00895CA0157FDF8
S113206007969C01A3E035952795AA95E1F7A481ED
S1132070B5812A9FC0012B9F900D3A9F900D11248A
S1132080680F791F078CF0A1E02DE60FF71F47704A
S1132090552781E090E001C0880F4A95EAF79081C6
S11320A0892B48C0CA0157FD07969C0193E03595DA
S11320B027959A95E1F7A481B5812A9FC0012B9FAA
S11320C0900D3A9F900D1124680F791F078CF0A191
S11320D0E02DE60FF71F4770552781E090E001C01F
S11320E0880F4A95EAF780959081892323C0CA0115
S11320F057FD07969C0183E0359527958A95E1F76E
S1132100A481B5812A9FC0012B9F900D3A9F900D09
S11321101124680F791F078CF0A1E02DE60FF71F3B
S11321204770552781E090E001C0880F4A95EAF78F
S11321309081892780830895813009F086CF6427B0
S11321407527462757276427752784819581DC01E5
S1132150A61BB70BBD016150710977CF08958EBDE1
S113216000000DB407FEFDCF8EB508954F925F9227
S11321706F927F928F929F92AF92BF92CF92DF9293
S1132180EF92FF920F93CF93DF93CDB7DEB73C016D
S1132190290150E070E04EDB81E592E0F301918388
S11321A08083148E138E4114510411F0C20102C0B5
S11321B089E893E0F301968F858F10A2178E8FEF35
S11321C084A385A386A387A300A7C5AAD6AAE7AA42
S11321D0F0AE81AE92AEA3AEB4AE80E586AF17AEDC
S11321E0DF91CF910F91FF90EF90DF90CF90BF9050
S11321F0AF909F908F907F906F905F904F900895D5
S113220021E532E0FC0131832083878D90A1009782
S113221011F00C940D2508951F93CF93DF93FC01C7
S1132220858D968D009719F1162FEF0161A1062E69
S1132230000C770B0E94A81B8D8D9E8DDC01ED9107
S1132240FC910190F081E02D60E019958D8D9E8DBB
S1132250DC01ED91FC910190F081E02D612F199545
S11322608D8D9E8DDF91CF911F910C941D1CA5A582
S1132270B6A59C9183A9809589238C93838D948D95
S1132280892B29F0862FDF91CF911F9168CF28E009
S113229030E080E8A1A5B2A591A9462F482319F002
S11322A04C91942B03C04C91909594239C93A3A59B
S11322B0B4A54C9192A9942B9C93A3A5B4A54C913D
S11322C092A9909594239C9386952150310911F7F6
S11322D0DF91CF911F9108951F93CF93DF93EC016A
S11322E0162F8D8D9E8D009739F04DA95EA96FA98B
S11322F078AD0E949B1B0FC08B8D9C8D892B21F088
S11323008EAD9FAD0E945409EFA5F8A990818CA9C8
S1132310809589238083111102C066EA01C067EAAF
S1132320CE017ADF8D8D9E8D009749F049AD5AAD6F
S11323306BAD7CADDF91CF911F910C949B1BEFA5EE
S1132340F8A990818CA9892B80838B8D9C8D892BF6
S113235029F0DF91CF911F910C946E09DF91CF91F9
S11323601F910895BF92CF92DF92EF92FF920F9345
S11323701F93CF93DF93EC01B62E072F142F8D8D6F
S11323809E8D009709F452C069A1062E000C770BAC
S11323900E94A81B8D8D9E8DDC01ED91FC91019016
S11323A0F081E02D60E01995CB2CD02EEE24E3943F
S11323B0F12C8D8D9E8D112371F1B0E2EB16F10499
S11323C0B8F00E941D1C69A1062E000C770B8D8DA0
S11323D09E8D0E94A81B8D8D9E8DDC01ED91FC913C
S11323E00190F081E02D60E01995EE24E394F12C46
S11323F08D8D9E8DF6016491DC01ED91FC9101902F
S1132400F081E02D1995BFEFEB1AFB0A1150F6018C
S113241031966F01CECFDF91CF911F910F91FF9035
S1132420EF90DF90CF90BF900C941D1CEDA5FEA5FE
S113243090818BA9809589238083E62EF72E112322
S113244071F1F70184912B8D3C8D232B31F087DEC4
S11324501150C70101967C01F2CF28E030E040E83A
S1132460E9A5FAA599A9582F542319F05081952B61
S113247003C05081909595239083EBA5FCA55081D2
S11324809AA9952B9083EBA5FCA550819AA99095C8
S11324909523908346952150310911F7D9CFDF91C7
S11324A0CF911F910F91FF90EF90DF90CF90BF904D
S11324B00895FC01868197819C01295F3F4F37FF76
S11324C002C0295F3F4F83E0359527958A95E1F750
S11324D084819581289FA001299F500D389F500D1C
S11324E0112460E070E0878D90A10C9483268F9274
S11324F09F92AF92BF92CF92DF92EF92FF920F938F
S11325001F93CF93DF93EC01862EB42EA22E902E30
S11325108F8D98A1892BE9F42E813F81C9010796FB
S113252097FD079623E0959587952A95E1F72C81E9
S11325303D81AC01429FC001439F900D529F900D7D
S113254011240E94752498A38F8F892B11F480E0A5
S113255081C1CE01AEDF8E819F816C817D8181320C
S11325609105E4F0AC014054510957FF02C04F5F9C
S11325705F4F559547956255710977FF02C06F5FAC
S11325807F4F75956795CC24C394D12C80E4E82EB5
S1132590F12C02E510E023E438E01BC0AC0140520A
S11325A0510957FF02C04F5F5F4F559547956357D9
S11325B0710977FF02C06F5F7F4F75956795CC24D3
S11325C0C394D12CA0E2EA2EF12C03E710E023E619
S11325D036E0CE0151D98AA28D8D9E8D009799F057
S11325E0B11007C02E813F812032310521F42CE344
S11325F003C02B2D01C02DE329A3992009F427C181
S11326000E948C1B78C061E08EA10E94A52261E02B
S11326108FA10E94A5228EA1082E000C990BFC010B
S1132620E157F44FE491F0E0EE0FFF1FEB52F44F4B
S1132630259134913EA72DA7FC01E75BF44FE4916B
S1132640EBAB8FA1082E000C990BFC01E157F44F62
S1132650E491F0E0EE0FFF1FEB52F44FA591B4911B
S1132660B8ABAFA7FC01E75BF44FE491ECAB8C9102
S1132670E82BEC938B8D9C8D892B29F0992009F400
S11326803AC082D338C061E08CA10E94A52261E0E7
S11326908DA10E94A5228CA1082E000C990BFC018F
S11326A0E157F44FE491F0E0EE0FFF1FEB52F44FCB
S11326B0259134913AA729A7FC01E75BF44FE491F3
S11326C0E9AB8DA1082E000C990BFC01E157F44FE6
S11326D0E491F0E0EE0FFF1FEB52F44FA591B4919B
S11326E0BCA7ABA7FC01E75BF44FE491EAAB8C9188
S11326F0E095E823EC93AA20F1F088A587FD1BC0A0
S113270061E00E94A52261E088A50E94E12261E0C7
S113271070E080E090E00E94B52160E088A50E940E
S1132720E1226AE070E080E090E00E94B52161E07F
S113273088A50E94E1228D8D9E8D009731F04DA9D0
S11327405EA96FA978ADF7D70FC08B8D9C8D892BAF
S113275021F08EAD9FAD0E945409EFA5F8A9908198
S11327608CA980958923808344E06FE576E0CE01CF
S1132770F9DD6E816150CE014FDD44E06BE576E01A
S1132780CE01F0DD8AA1813011F460E101C064E181
S1132790CE0142DD44E067E576E0CE01E3DD8FE87B
S11327A08DAF8C819D818038910571F48E819F81DC
S11327B080349105B9F48AA1813011F48FE901C004
S11327C08FEC8DAF12E10FC08036910559F48E81E4
S11327D09F81409739F48AA1813011F480E101C0CE
S11327E08FEA8DAF12E06AEDCE0116DD612FCE01C6
S11327F013DD61E8CE0110DD6DADCE010DDD69EDB7
S1132800CE010ADD8AA1813011F462E201C061EFD8
S1132810CE0102DD46E061E576E0CE01A3DD8D8DDB
S11328209E8D009731F049AD5AAD6BAD7CAD83D729
S11328300CC0EFA5F8A990818CA9892B80838B8D7E
S11328409C8D892B11F00E946E0981E003C0A110B8
S113285054CF75CFDF91CF911F910F91FF90EF90DF
S1132860DF90CF90BF90AF909F908F9008950F937B
S11328701F93CF93DF93DC0157FD64C016968D91AF
S11328809C911797481759070CF05CC077FF04C058
S1132890260F371F60E070E01496CD91DC911597F8
S11328A0CB01820F931FC817D9071CF49E01261B66
S11328B0370B121613060CF045C0FA0157FD379674
S11328C0CF01E3E095958795EA95E1F78C9FF001B8
S11328D08D9FF00D9C9FF00D11246E0F7F1F5F964E
S11328E0ED91FC919097E60FF71F4770552781E013
S11328F090E001C0880F4A95EAF7482F013011058E
S113290039F078F002301105E9F42E0F3F1F13C09F
S11329102E0F3F1FE217F307A9F08081842B8193C8
S1132920F9CF80952E0F3F1FE217F30759F09081DE
S113293098239193F9CFE217F30721F0808184273C
S11329408193F9CFDF91CF911F910F910895EF9269
S1132950FF920F931F93CF93DF93EC0177FDA5C0F4
S1132960EC80FD806E157F050CF09FC057FF04C0FE
S1132970240F351F40E050E08E819F81FA01E20F61
S1132980F31F8E179F071CF49C01241B350B121692
S113299013060CF08AC0922F842F8695869586950F
S11329A08E9DD0018F9DB00D11246A0F7B1FAF8DBA
S11329B0B8A1A60FB71F4770B1F188E0841B482F58
S11329C0682F70E0FB01E75BF94FE491281798F456
S11329D0621B71092FEF30E002C0359527956A9587
S11329E0E2F7E2230130110549F078F002301105D5
S11329F009F05BC00EC00130110519F48C91E82B6D
S1132A000AC00130110508F049C0E0958C91E82313
S1132A1002C08C91E827EC93941708F446C02C81EB
S1132A203D81A20FB31FE92FE41BE830F8F0023018
S1132A30110561F48E2F9C9190959C932C813D817E
S1132A40A20FB31F88508830B0F70FC081E0011582
S1132A50110509F480E081959E2F8C932C813D8192
S1132A60A20FB31F98509830C0F7E770EE23E9F037
S1132A70F0E0EF5BF94FE4910130110539F048F0D3
S1132A800230110591F48C91E82706C08C91E82B53
S1132A9003C0E0958C91E823EC9307C00230110544
S1132AA009F4B7CFAE0DBF1DBECFDF91CF911F91FB
S1132AB00F91FF90EF9008950F931F93DC015696AA
S1132AC0EC915697E23061F0E33009F1E13079F5A9
S1132AD01496ED91FC911597E41BF50B319723C0E7
S1132AE0DC011496ED91FC911597DF01A61BB70B41
S1132AF0BD01DC011696ED91FC911797DF01A41B33
S1132B00B50BAD0141505109621B730B10C0FA01A2
S1132B10DC0116964D915C911797DA01A61BB70B51
S1132B20BD01621B730BAB01BF0111DF01C09FDE4E
S1132B301F910F9108950F931F93DC015696EC910A
S1132B405697E23069F0E33011F1E13081F51496E3
S1132B50ED91FC911597E41BF50BE21BF30B23C0DD
S1132B60DC011496ED91FC911597DF01A61BB70BC0
S1132B70BD0161507109DC011696ED91FC91179726
S1132B80DF01A41BB50BAD01421B530B10C0FA01AE
S1132B90DC0116964D915C911797DA01A61BB70BD1
S1132BA0BD0161507109AB01BF0161DE01C0CFDE1F
S1132BB01F910F910895CF92DF92EF92FF920F939E
S1132BC01F93CF93DF93EC018D8D9E8D009731F091
S1132BD04DA95EA96FA978ADAED50FC08B8D9C8D24
S1132BE0892B21F08EAD9FAD0E945409EFA5F8A961
S1132BF090818CA980958923808345E06CE376E0FD
S1132C00CE01B0DB6C816150CE0106DB2E813F81A9
S1132C10C901079697FD079623E0959587952A9510
S1132C20E1F72C813D81829F7001839FF00C929F7C
S1132C30F00C11240F8D18A18D8D9E8DE00EF11EC8
S1132C40009709F43FC069A1062E000C770B80D5CC
S1132C508D8D9E8DDC01ED91FC910190F081E02D34
S1132C6060E41995680101E010E08D8D9E8DEC14EF
S1132C70FD0431F100321105A0F0DFD569A1062E63
S1132C80000C770B8D8D9E8D63D58D8D9E8DDC0113
S1132C90ED91FC910190F081E02D60E4199501E043
S1132CA010E08D8D9E8DF60161916F01DC01ED9137
S1132CB0FC910190F081E02D19950F5F1F4FD5CF46
S1132CC0BCD534C0EDA5FEA590818BA9892B80834A
S1132CD00E151F0559F1F80181918F012B8D3C8D43
S1132CE0232B11F03CDAF4CF28E030E040E8E9A5EA
S1132CF0FAA599A9582F542319F05081952B03C094
S1132D005081909595239083EBA5FCA550819AA9B9
S1132D10952B9083EBA5FCA550819AA990959523BA
S1132D20908346952150310911F7D2CF8D8D9E8D18
S1132D30009769F049AD5AAD6BAD7CADDF91CF9191
S1132D401F910F91FF90EF90DF90CF90F4C4EFA507
S1132D50F8A990818CA9892B80838B8D9C8D892BDC
S1132D6051F0DF91CF911F910F91FF90EF90DF9081
S1132D70CF900C946E09DF91CF911F910F91FF902A
S1132D80EF90DF90CF900895CF93CFB7F8948091D0
S1132D901403811127C0E4ECFBE08491EEE7FBE02F
S1132DA09491E82FF0E0EE0FFF1FE151F44FA5914D
S1132DB0B491EC91E92321F461E085E30E94E122DE
S1132DC061E085E30E94A5228CB580618CBD8CB541
S1132DD080648CBD61E084E30E94A52261E083E30A
S1132DE00E94A522809114038F5F80931403CFBFA8
S1132DF0CF9108951092880381E080938603109206
S1132E00850361E084E10E94E12261E085E10E94A2
S1132E10E122E9EBF0E080818E7F808380818D7FE9
S1132E20808388E48093B80085E48093BC0008958F
S1132E30ECEBF0E080818A7B808360E084E10E9497
S1132E40E12260E085E10C94E1229B01AC0160E0A9
S1132E5074E284EF90E00E943224DA01C9014097C1
S1132E60A109B109B695A795979587958093B80060
S1132E70089540913703262F30E0240F311D21326D
S1132E803105DCF4209188032430C9F4FC0180E08E
S1132E9090E0861758F4309137032191DC01A75C48
S1132EA0BC4FA30FB11D2C930196F3CF8091370330
S1132EB0680F6093370380E0089581E0089582E00D
S1132EC0089590937C0380937B03089590937E03ED
S1132ED080937D03089585EC8093BC001092880351
S1132EE00895CF93DF9391E090938003882351F06A
S1132EF0C091B800D091BA009BDF7CDFD093BA00B8
S1132F00C093B800DF91CF9108954F925F926F9272
S1132F107F928F929F92AF92BF92CF92DF92EF9265
S1132F20FF920F931F93CF93DF93F82E162F072F43
S1132F30C42FE22E413208F0BCC00E9490214B0104
S1132F405C01D0918803DD2329F180918103909164
S1132F508203A0918303B0918403892B8A2B8B2B4A
S1132F6081F30E94902140908103509082036090ED
S1132F70830370908403DC01CB0188199909AA09A1
S1132F80BB09481659066A067B06D8F680917F036A
S1132F90A8DF8FC081E080938803E09286039FEFCF
S1132FA09093150310925A039C0F909359038093A6
S1132FB08703909187038F2D880F892B8093870334
S1132FC080918503813089F5109285030E949021B8
S1132FD06B017C01809187038093BB008091810306
S1132FE090918203A0918303B0918403892B8A2B4F
S1132FF08B2BA9F00E9490218090810390908203F2
S1133000A0908303B0908403DC01CB018C199D094B
S1133010AE09BF0988169906AA06BB0690F18091ED
S1133020BC0083FDD7CF85EC01C085EE8093BC0046
S11330300E9490216B017C0180918803813029F5E5
S11330408091810390918203A0918303B0918403C2
S1133050892B8A2B8B2B81F30E94902180908103F2
S113306090908203A0908303B0908403DC01CB0191
S11330708C199D09AE09BF0988169906AA06BB06D4
S1133080D8F680917F032DDF15C080915A038C17E9
S113309010F4C0915A03ABE5B3E0912FE12FF02F68
S11330A08E2F891B8C1718F48D918193F9CFDC2F07
S11330B001C0D0E08D2FDF91CF911F910F91FF9030
S11330C0EF90DF90CF90BF90AF909F908F907F90C4
S11330D06F905F904F9008954F925F926F927F929E
S11330E08F929F92AF92BF92CF92DF92EF92FF9214
S11330F00F931F93CF93DF93413208F0C5C0122F73
S1133100F42ED72EE62ED82F0E9490214B015C017D
S1133110C0918803CC2311F18091810390918203A3
S1133120A0918303B0918403892B8A2B8B2B81F389
S11331300E94902140908103509082036090830309
S113314070908403DC01CB0188199909AA09BB0991
S1133150481659066A067B06D8F683C082E0809337
S11331608803009386038FEF8093150310925A030C
S1133170F09259039E2DABE5B3E0EE2DFD2D8E2F7D
S1133180891B8F1518F481918D93F9CF10928703C1
S113319090918703DD0FD92BD0938703809185030A
S11331A0813089F5109285030E9490216B017C0186
S11331B0809187038093BB00809181039091820367
S11331C0A0918303B0918403892B8A2B8B2BA9F0C4
S11331D00E9490218090810390908203A0908303A9
S11331E0B0908403DC01CB018C199D09AE09BF09A1
S11331F088169906AA06BB06A0F18091BC0083FD3F
S1133200D7CF85EC01C085EE8093BC000E9490214D
S11332106B017C01112351F180918803823031F5D7
S11332208091810390918203A0918303B0918403E0
S1133230892B8A2B8B2B71F30E9490218090810320
S113324090908203A0908303B0908403DC01CB01AF
S11332508C199D09AE09BF0988169906AA06BB06F2
S1133260C8F680917F033DDEC5E013C0809115034D
S11332708F3F79F080911503803241F080911503DE
S1133280803331F0C4E005C0C1E003C0C2E001C036
S1133290C3E08C2FDF91CF911F910F91FF90EF909E
S11332A0DF90CF90BF90AF909F908F907F906F9062
S11332B05F904F90089585ED8093BC0080918103C9
S11332C090918203A0918303B09184030796A11D7A
S11332D0B11D23E0B695A795979587952A95D1F7C3
S11332E02091BC0024FF1BC04091810350918203B4
S11332F06091830370918403452B462B472B81F304
S11333000097A105B10541F025E32A95F1F70000E6
S11333100197A109B109E4CF80917F03E2CD109216
S1133320880308951F920F920FB60F9211240BB6C3
S11333300F922F933F934F935F936F937F938F934A
S11333409F93AF93BF93EF93FF938091B900887FCE
S1133350803609F49DC070F5883209F45CC090F49D
S1133360803109F455C038F4882309F4F3C0883057
S113337009F44EC0F2C0883109F44DC0803209F41A
S11333805EC0EBC0803409F469C050F4803309F4A2
S113339056C0883309F0E1C0809315039CDDDDC07D
S11333A0803509F44FC0883509F45DC0883409F0CC
S11333B0D4C0D2C0883909F4C3C0A8F4883709F44A
S11333C067C038F4883609F463C0803709F460C0F4
S11333D0C4C0883809F4B4C0803909F45FC08038A7
S11333E009F0BBC05BC0803B09F482C038F4803A6A
S11333F009F466C0883A09F47BC0AFC0803C09F484
S1133400A3C0883C09F4A0C0883B09F486C0A5C0C9
S11334108091870310C090915A03809159039817A3
S113342070F5E0915A0381E08E0F80935A03F0E027
S1133430E55AFC4F80818093BB0085EC82C0809369
S113344015038AC0E0915A0381E08E0F80935A03DA
S11334508091BB00F0E0E55AFC4F808390915A03C1
S1133460809159036AC0E0915A0381E08E0F8093E2
S11334705A038091BB00F0E0E55AFC4F80838091B1
S11334808603811169C081E08093850384EA5DC06D
S113349083E08093880310921603CFCF80911603A4
S11334A0803208F04DC0E091160381E08E0F8093C6
S11334B016038091BB00F0E0E95EFC4F8083BDCF32
S11334C00ADD80911603803230F4E0911603F0E0B7
S11334D0E95EFC4F10826091160370E0E0917B037B
S11334E0F0917C0387E193E019951092160335C09F
S11334F084E0809388031092380310923703E0919C
S11335007D03F0917E03199580913703811105C0E5
S113351081E08093370310923903E091380381E00E
S11335208E0F80933803F0E0E75CFC4F808180933A
S1133530BB009091380380913703981708F47DCF2E
S113354085E88093BC0009C085EC8093BC00109290
S1133550880303C010921503AEDEFF91EF91BF9173
S1133560AF919F918F917F916F915F914F913F9117
S11335702F910F900BBE0F900FBE0F901F901895B8
S11335808091BD0390E02091BE03821B91090895B0
S11335909091BE038091BD03981750F4E92FF0E099
S11335A0E154FC4F208130E09F5F9093BE0302C042
S11335B02FEF3FEFC9010895E091BE038091BD0351
S11335C0E81730F4F0E0E154FC4F808190E0089576
S11335D08FEF9FEF08950895CF93DF93EC01E0916F
S11335E09503F09196033097F1F09091BE0380918A
S11335F0BD039817C0F090E0292F30E02617370755
S113360054F4DE01A20FB31F4C91D901A154BC4F55
S11336104C939F5FF1CF1092BE036093BD03CB0127
S1133620DF91CF911994DF91CF910895E0919703A1
S1133630F0919803309729F010929B0310929A030B
S113364019940895CF92DF92EF92FF920F931F93F4
S1133650CF93DF937C01CB018A012091990322232C
S113366089F0EB016B01C40ED51ECC15DD0561F0AC
S11336706991D701ED91FC910190F081E02DC70192
S11336801995F3CF642FF5DBC801DF91CF911F911A
S11336900F91FF90EF90DF90CF900895CF93DF9339
S11336A01F92CDB7DEB76983209199032223D1F00D
S11336B020919A03203240F021E030E0FC01338372
S11336C0228380E090E014C080919B03E82FF0E017
S11336D0E456FC4F998190838F5F80939B03809382
S11336E09A0304C061E0CE010196C3DB81E090E05F
S11336F00F90DF91CF910895FC011382128288EE1E
S113370093E0A0E0B0E084839583A683B7838DE73C
S113371092E09183808308951092BE031092BD03BA
S113372010929B0310929A0365DB86E19BE1CEDB4A
S11337308CEE9AE1C6CBCB01BA0187CB81E08093B2
S113374099036093BC0310929B0310929A0308950B
S1133750F5CF0F93062F21E040919A036CE973E0B3
S11337608091BC03B9DC10929B0310929A031092CF
S113377099030F9108954F925F926F927F92AF9247
S1133780BF92CF92EF92FF920F931F93CF93DF9349
S11337905C01F62ED42F28013901EE2011F1CEDF81
S11337A0CE2DC43008F0C3E0C150C0F028E0C29F61
S11337B0C0011124A301920104C056954795379581
S11337C027958A95D2F7CA01B901D501ED91FC91EB
S11337D00190F081E02DC5011995E6CF60E0C501A7
S11337E0B8DF4D2FD13208F040E22C2D6FEB73E09F
S11337F08F2D8BDB1092BE038093BD03DF91CF919D
S11338001F910F91FF90EF90CF90BF90AF907F905A
S11338106F905F904F900895CF92EF920F931F9304
S1133820C22EE12C00E010E09801A5DF1F910F915A
S1133830EF90CF90089521E0EFCF61E08ACF89E83F
S113384093E05ACF0E947626FC01918D228D892F18
S113385090E0805C9F4F821B91098F739927089594
S1133860FC01918D828D981731F0828DE80FF11D46
S1133870858D90E008958FEF9FEF0895FC01918D61
S1133880828D981761F0828DDF01A80FB11D5D96BE
S11338908C91928D9F5F9F73928F90E008958FEF2C
S11338A09FEF0895FC01538D448D252F30E0842F24
S11338B090E0821B930B541710F0CF960895019754
S11338C008958EEE9DE1892B39F080E090E0892BFC
S11338D019F084D1811125C080E090E0892B41F05A
S11338E080E090E0892B21F00E94000081111CC02F
S11338F080E090E0892B41F080E090E0892B21F07A
S11339000E940000811113C080E090E0892BA1F097
S113391080E090E0892B81F00E94000081110AC0B0
S113392008950E940000D8CF0E940000E1CF0E94B9
S11339300000EACF0C9400000895FC01848DDF019F
S1133940A80FB11DA35ABF4F2C91848D90E001960E
S11339508F739927848FA689B7892C93A089B189FD
S11339608C91837080648C93938D848D981306C09E
S11339700288F389E02D80818F7D80830895EF9202
S1133980FF920F931F93CF93DF93EC0181E0888F15
S11339909B8D8C8D981305C0E889F989808185FDFC
S11339A025C0F62E0B8D10E00F5F1F4F0F731127EC
S11339B0E02E8C8DE8120BC00FB607FCFACFE88915
S11339C0F989808185FFF5CFCE01B7DFF2CF8B8DEA
S11339D0FE01E80FF11DE35AFF4FF0829FB7F89400
S11339E00B8FEA89FB89808180620AC09FB7F894B3
S11339F0EE89FF896083E889F98980818370806416
S1133A0080839FBF81E090E0DF91CF911F910F9160
S1133A10FF90EF900895CF93DF93EC01888D882376
S1133A20C1F0EA89FB89808185FD05C0A889B9892F
S1133A308C9186FD0EC00FB607FCF5CF808185FF03
S1133A40F2CFA889B9898C9185FFEDCFCE0175DFBE
S1133A50E8CFDF91CF910895CF92DF92EF92FF925A
S1133A601F93CF93DF93EC016A017B01122FE88946
S1133A70F98982E080834115514E61057105A9F0F1
S1133A8060E079E08DE390E0A7019601EBD6DA01DE
S1133A90C9010197A109B109B695A795979587958D
S1133AA09C01211580E13807A0F0E889F98910828A
S1133AB060E874E88EE190E0A7019601D3D6DA01BC
S1133AC0C9010197A109B109B695A795979587955D
S1133AD09C01EC85FD853083EE85FF852083188E5F
S1133AE0EC89FD891083EA89FB8980818061808368
S1133AF0EA89FB89808188608083EA89FB898081E7
S1133B0080688083EA89FB8980818F7D8083DF914F
S1133B10CF911F91FF90EF90DF90CF9008951F9267
S1133B200F920FB60F9211240BB60F922F938F930F
S1133B309F93EF93FF93E091EF03F091F003808163
S1133B40E091F503F091F60382FD12C0908180911B
S1133B50F8038F5F8F732091F903821751F0E0917E
S1133B60F803F0E0E152FC4F958F8093F80301C015
S1133B708081FF91EF919F918F912F910F900BBEB8
S1133B800F900FBE0F901F9018951F920F920FB6B3
S1133B900F9211240BB60F922F933F934F935F9381
S1133BA06F937F938F939F93AF93BF93EF93FF9301
S1133BB08FED93E0C2DEFF91EF91BF91AF919F91A2
S1133BC08F917F916F915F914F913F912F910F90C2
S1133BD00BBE0F900FBE0F901F9018958FED93E0C2
S1133BE033DE21E0892B09F420E0822F0895EFEDE4
S1133BF0F3E01382128288EE93E0A0E0B0E08483C5
S1133C009583A683B7838FE892E09183808385ECC4
S1133C1090E09587848784EC90E09787868780EC92
S1133C2090E0918B808B81EC90E0938B828B82EC83
S1133C3090E0958B848B86EC90E0978B868B118E2D
S1133C40128E138E148E08950895C8D3FDDF0E943A
S1133C50AC07C1E6DCE10E948F082097E1F331DE76
S1133C60FACFCF92DF92EF92FF920F931F93CF93ED
S1133C70DF936C017A018B01C0E0D0E0CE15DF0543
S1133C8081F0D8016D918D01D601ED91FC910190E7
S1133C90F081E02DC6011995892B11F02196EECF04
S1133CA07E01C701DF91CF911F910F91FF90EF909B
S1133CB0DF90CF9008956115710579F0FB010190B3
S1133CC00020E9F73197AF01461B570BDC01ED915A
S1133CD0FC910280F381E02D199480E090E0089536
S1133CE0EF92FF920F931F93CF93DF938C017B018D
S1133CF0C0E0D0E0F701EC0FFD1F6491662361F092
S1133D00D801ED91FC910190F081E02DC801199545
S1133D10892B11F02196EECFCE01DF91CF911F9127
S1133D200F91FF90EF900895DB0114964D915C91F3
S1133D3015976D917C91DC01ED91FC910280F381EA
S1133D40E02D1994DC01ED91FC910190F081E02DBE
S1133D5019946DE972E0AFCF0F931F93CF93DF9364
S1133D60EC01BEDF8C01CE01F4DF800F911FDF91E7
S1133D70CF911F910F9108950F931F93CF93DF93CA
S1133D80EC01D2DF8C01CE01E4DF800F911FDF91C3
S1133D90CF911F910F9108958F929F92AF92BF92EE
S1133DA0EF92FF920F931F93CF93DF93CDB7DEB7BC
S1133DB0A1970FB6F894DEBF0FBECDBF7C01FA0108
S1133DC0CB0119A2223008F42AE08E010F5D1F4FA7
S1133DD0822E912CA12CB12CBF01A501940142D5B6
S1133DE0F901CA01015011096A3010F4605D01C083
S1133DF0695CD8016C93232B242B252B69F7B8011C
S1133E00C70159DFA1960FB6F894DEBF0FBECDBF30
S1133E10DF91CF911F910F91FF90EF90BF90AF90E2
S1133E209F908F900895CF92DF92EF92FF920F931D
S1133E301F93CF93DF932115310581F4DC01ED91BC
S1133E40FC910190F081E02D642FDF91CF911F91BF
S1133E500F91FF90EF90DF90CF9019942A303105A5
S1133E60F1F477FF1BC06A017B01EC016DE26ADFAC
S1133E708C0144275527BA014C195D096E097F0945
S1133E802AE0CE0189DF800F911FDF91CF911F912E
S1133E900F91FF90EF90DF90CF9008952AE0DF918B
S1133EA0CF911F910F91FF90EF90DF90CF9074CF3F
S1133EB09A01AB01770F660B770BB5CF0F931F9366
S1133EC0CF93DF93EC01F4DF8C01CE0142DF800F4E
S1133ED0911FDF91CF911F910F910895089588301C
S1133EE008F06FC0A82FB0E0AA0FBB1FA85FBD4F9A
S1133EF011967C936E9390E0FC013197E730F105C5
S1133F0098F58827EE58FF4F8F4FCEC480916900F3
S1133F108C7F482B40936900E89A0895809169004A
S1133F20837F440F551F440F551F482B409369004E
S1133F30E99A0895809169008F7C74E0440F551FBD
S1133F407A95E1F7482B40936900EA9A08958091A5
S1133F5069008F7366E0440F551F6A95E1F7482B9B
S1133F6040936900EB9A089580916A008C7F482BF6
S1133F7040936A00EC9A089580916A00837F440F0D
S1133F80551F440F551F482B40936A00ED9A08951E
S1133F9080916A008F7C24E0440F551F2A95E1F735
S1133FA0482B40936A00EE9A089580916A008F73BB
S1133FB096E0440F551F9A95E1F7482B40936A0009
S1133FC0EF9A08951F920F920FB60F9211240BB619
S1133FD00F922F933F934F935F936F937F938F939E
S1133FE09F93AF93BF93EF93FF93E0910C02F091F3
S1133FF00D021995FF91EF91BF91AF919F918F9110
S11340007F916F915F914F913F912F910F900BBED4
S11340100F900FBE0F901F9018951F920F920FB61E
S11340200F9211240BB60F922F933F934F935F93EC
S11340306F937F938F939F93AF93BF93EF93FF936C
S1134040E0910E02F0910F021995FF91EF91BF914B
S1134050AF919F918F917F916F915F914F913F911C
S11340602F910F900BBE0F900FBE0F901F901895BD
S11340701F920F920FB60F9211240BB60F922F932B
S11340803F934F935F936F937F938F939F93AF93DC
S1134090BF93EF93FF93E0911002F09111021995F1
S11340A0FF91EF91BF91AF919F918F917F916F910C
S11340B05F914F913F912F910F900BBE0F900FBEC8
S11340C00F901F9018951F920F920FB60F92112404
S11340D00BB60F922F933F934F935F936F937F93FE
S11340E08F939F93AF93BF93EF93FF93E09112024B
S11340F0F09113021995FF91EF91BF91AF919F91A8
S11341008F917F916F915F914F913F912F910F907C
S11341100BBE0F900FBE0F901F9018951F920F9219
S11341200FB60F9211240BB60F922F933F934F9318
S11341305F936F937F938F939F93AF93BF93EF930B
S1134140FF93E0910802F09109021995FF91EF9114
S1134150BF91AF919F918F917F916F915F914F919B
S11341603F912F910F900BBE0F900FBE0F901F9099
S113417018951F920F920FB60F9211240BB60F923F
S11341802F933F934F935F936F937F938F939F935B
S1134190AF93BF93EF93FF93E0910A02F0910B0268
S11341A01995FF91EF91BF91AF919F918F917F915D
S11341B06F915F914F913F912F910F900BBE0F9094
S11341C00FBE0F901F9018951F920F920FB60F926B
S11341D011240BB60F922F933F934F935F936F93DA
S11341E07F938F939F93AF93BF93EF93FF93E0914C
S11341F01402F09115021995FF91EF91BF91AF91BF
S11342009F918F917F916F915F914F913F912F91EA
S11342100F900BBE0F900FBE0F901F9018951F921A
S11342200F920FB60F9211240BB60F922F933F9358
S11342304F935F936F937F938F939F93AF93BF93AA
S1134240EF93FF93E0911602F09117021995FF91F5
S1134250EF91BF91AF919F918F917F916F915F91FA
S11342604F913F912F910F900BBE0F900FBE0F9067
S11342701F9018951F920F920FB60F9211242F932F
S11342803F938F939F93AF93BF9380917D049091BD
S11342907E04A0917F04B091800430917C0423E0DB
S11342A0230F2D3720F40196A11DB11D05C026E86A
S11342B0230F0296A11DB11D20937C0480937D04DD
S11342C090937E04A0937F04B09380048091810432
S11342D090918204A0918304B09184040196A11D5D
S11342E0B11D8093810490938204A0938304B093BE
S11342F08404BF91AF919F918F913F912F910F9023
S11343000FBE0F901F9018952FB7F89460917D04FD
S113431070917E0480917F04909180042FBF089552
S11343203FB7F8948091810490918204A091830412
S1134330B091840426B5A89B05C02F3F19F00196BF
S1134340A11DB11D3FBFBA2FA92F982F8827820F17
S1134350911DA11DB11DBC01CD0142E0660F771F67
S1134360881F991F4A95D1F708958F929F92AF9213
S1134370BF92CF92DF92EF92FF926B017C01D0DF6C
S11343804B015C01C114D104E104F104F1F069D2E0
S1134390C7DFDC01CB0188199909AA09BB09883E4A
S11343A09340A105B10570F321E0C21AD108E108D8
S11343B0F10888EE880E83E0981EA11CB11CC1147C
S11343C0D104E104F10421F7DDCFFF90EF90DF90F9
S11343D0CF90BF90AF909F908F900895789484B5BC
S11343E0826084BD84B5816084BD85B5826085BDED
S11343F085B5816085BDEEE6F0E0808181608083D3
S1134400E1E8F0E0108280818260808380818160B5
S11344108083E0E8F0E0808181608083E1EBF0E07C
S1134420808184608083E0EBF0E080818160808320
S1134430E1E9F0E080818260808380818160808313
S1134440E0E9F0E0808181608083E1EAF0E080814E
S113445082608083808181608083E0EAF0E08081F3
S113446081608083E1E2F1E08081826080838081E9
S113447081608083E0E2F1E0808181608083EAE70B
S1134480F0E0808184608083808182608083808189
S1134490816080838081806880831092C100089548
S11344A090E0FC013197E231F10508F04DC0882716
S11344B0E758FF4F8F4FF8C1809180008F7703C07A
S11344C0809180008F7D809380000895809180008A
S11344D0877FF9CF84B58F7702C084B58F7D84BD83
S11344E008958091B0008F7703C08091B0008F7DD4
S11344F08093B0000895809190008F7707C08091D9
S113450090008F7D03C080919000877F80939000FE
S113451008958091A0008F7707C08091A0008F7DBF
S113452003C08091A000877F8093A00008958091AC
S113453020018F7707C0809120018F7D03C0809177
S11345402001877F809320010895CF93DF9390E02B
S1134550FC01E75BF44F2491FC01E157F44F849193
S1134560882361F190E0880F991FFC01E151F44F19
S1134570C591D491FC01EB52F44FA591B491611112
S113458009C09FB7F8948881209582238883EC9191
S11345902E230BC0623061F49FB7F8948881322FC8
S11345A0309583238883EC912E2B2C939FBF06C0D8
S11345B08FB7F894E8812E2B28838FBFDF91CF919A
S11345C008951F93CF93DF93282F30E0F901ED5F17
S11345D0F44F8491F901E75BF44FD491F901E15769
S11345E0F44FC491CC23B9F0162F811159DFEC2F6D
S11345F0F0E0EE0FFF1FEB52F44FA591B4919FB77B
S1134600F894111104C08C91D095D82302C0EC9178
S1134610DE2BDC939FBFDF91CF911F910895FC01A6
S113462080819181009709F0F8C10895CF93DF93B9
S1134630EC0188819981009709F0EFD119821882E1
S11346401D821C821B821A82DF91CF9108950F93E1
S11346501F93CF93DF93EC018B016F5F7F4F8881B2
S1134660998164D2009731F0998388831B830A83EC
S113467081E001C080E0DF91CF911F910F910895F7
S1134680CF93DF93EC0188819981892B29F08A816A
S11346909B818617970758F4CE01D9DF882341F010
S11346A08C819D81892B19F4E881F981108281E044
S11346B0DF91CF910895EF92FF920F931F93CF93C1
S11346C0DF93EC017B018A01BA01DADF811103C0B7
S11346D0CE01ACDF06C01D830C83B70188819981AC
S11346E019D3CE01DF91CF911F910F91FF90EF90DD
S11346F00895FC01118210821382128215821482A1
S11347006115710549F0FB0101900020E9F731972B
S1134710AF01461B570BCFCF0895EF92FF920F9333
S11347201F93CF93DF936115710511F480E01AC0D4
S113473041155105B1F07B01EC018C819D818A0109
S1134740080F191FB801CE019BDF882379F3288154
S113475039818C819D81B701820F931FDBD21D8328
S11347600C8381E0DF91CF911F910F91FF90EF9027
S113477008956115710549F0FB0101900020E9F7E6
S11347803197AF01461B570BC8CF80E00895CF93F4
S1134790DF931F921F92CDB7DEB769831A8241E07F
S11347A050E0BE016F5F7F4FB8DF0F900F90DF9135
S11347B0CF910895EF92FF920F931F93CF93DF93BE
S11347C000D01F92CDB7DEB77C01862F4AE08E0160
S11347D00F5F1F4FB80190E0A4D2F80101900020B0
S11347E0E9F73197AF01401B510BB801C70195DFC1
S11347F00F900F900F900F90DF91CF911F910F9119
S1134800FF90EF900895EF92FF920F931F93CF9331
S1134810DF93CDB7DEB728970FB6F894DEBF0FBE8F
S1134820CDBF7C01CB014AE08E010F5F1F4FB80161
S113483078D2F80101900020E9F73197AF01401BCD
S1134840510BB801C70169DF28960FB6F894DEBF93
S11348500FBECDBFDF91CF911F910F91FF90EF90CD
S113486008950895A1E21A2EAA1BBB1BFD010DC0D9
S1134870AA1FBB1FEE1FFF1FA217B307E407F5070C
S113488020F0A21BB30BE40BF50B661F771F881FE8
S1134890991F1A9469F760957095809590959B017E
S11348A0AC01BD01CF010895EE0FFF1F881F8BBF20
S11348B00790F691E02D1994A29FB001B39FC00117
S11348C0A39F700D811D1124911DB29F700D811D38
S11348D01124911D0895F0DFA59F900DB49F900DB4
S11348E0A49F800D911D112408950F931F93CF93BE
S11348F0DF938230910510F482E090E0E091870428
S1134900F091880420E030E0A0E0B0E0309719F1A5
S1134910408151810281138148175907C8F08417D7
S1134920950769F4109731F012960C931297139629
S11349301C9327C0009387041093880422C0211578
S1134940310519F04217530718F49A01BD01EF011C
S1134950DF01F801DBCF21153105F9F0281B390BF4
S11349602430310580F48A819B816115710521F021
S1134970FB019383828304C090938804809387040B
S1134980FE01329644C0FE01E20FF31F819391931E
S113499022503109398328833AC02091850430910B
S11349A08604232B41F420910202309103023093B8
S11349B08604209385042091000230910102211580
S11349C0310541F42DB73EB74091040250910502E0
S11349D0241B350BE0918504F0918604E217F3075C
S11349E0A0F42E1B3F0B2817390778F0AC014E5F5B
S11349F05F4F2417350748F04E0F5F1F509386040E
S1134A00409385048193919302C0E0E0F0E0CF01EC
S1134A10DF91CF911F910F910895CF93DF9300976A
S1134A2009F481C0FC01329713821282A091870499
S1134A30B0918804109781F420813181820F931FF3
S1134A4020918504309186042817390751F5F09395
S1134A508604E093850467C0ED0120E030E0CE17C2
S1134A60DF0740F44A815B819E0141155105F1F055
S1134A70EA01F5CFD383C28340815181840F951F0E
S1134A80C817D90759F488819981840F951F029614
S1134A90918380838A819B8193838283211531054D
S1134AA029F4F0938804E09387043DC0E901FB8373
S1134AB0EA8349915991C40FD51FEC17FD0761F49E
S1134AC080819181840F951F0296E90199838883DF
S1134AD0828193819B838A83E0E0F0E012968D913A
S1134AE09C911397009719F0FD01DC01F7CF8D918C
S1134AF09C9111979D012E5F3F4F820F931F209130
S1134B008504309186042817390769F4309729F40D
S1134B10109288041092870402C013821282B09308
S1134B208604A0938504DF91CF9108956F927F92BC
S1134B308F929F92AF92BF92CF92DF92EF92FF92A9
S1134B400F931F93CF93DF93009781F4CB01DF91F1
S1134B50CF911F910F91FF90EF90DF90CF90BF9076
S1134B60AF909F908F907F906F90BFCEFC01E60F27
S1134B70F71F9C0122503109E217F30708F4A5C07E
S1134B80EC01D9010D911C91119706171707A8F094
S1134B900530110508F497C0C801049786179707D4
S1134BA008F491C002501109061B170B01931193CD
S1134BB06D937C93CF0131DF86C05B01A01AB10AEB
S1134BC04C01800E911EA0918704B0918804612C41
S1134BD0712CE12CF12C109709F446C08D919C9115
S1134BE01197A815B905B1F56C0142E0C40ED11CAA
S1134BF0CA14DB0478F14C018A189B08640142E072
S1134C00C40ED11C1296BC9012971396AC91B5E0C9
S1134C10CB16D10440F0B282A38391828082D90161
S1134C206D937C9309C00E5F1F4F800F911FF90194
S1134C3091838083EB2DFA2FE114F10431F0D70135
S1134C401396FC93EE9312973EC0F0938804E0937E
S1134C50870439C06816790608F43C017D01129670
S1134C600D90BC91A02DB7CF8091850490918604BE
S1134C7088169906E1F466167706C8F48091000256
S1134C8090910102009741F48DB79EB740910402C0
S1134C9050910502841B950BE817F907B0F4F093C3
S1134CA08604E0938504F901718360830CC0CB0111
S1134CB01CDE7C01009749F0A801BE011BD0CE0187
S1134CC0ACDEC70104C0CE0102C080E090E0DF91F9
S1134CD0CF911F910F91FF90EF90DF90CF90BF90F5
S1134CE0AF909F908F907F906F90089581E090E0B7
S1134CF0F8944AC0FB01DC0102C001900D924150BE
S1134D005040D8F70895DC0101C06D9341505040E4
S1134D10E0F70895FB01DC0101900D920020E1F71A
S1134D200895BB274A3031F4992322F4BDE29095CB
S1134D3081959F4F01C0BB27FB015527AA27880FE8
S1134D40991FAA1FA41710F0A41B83955051B9F7FB
S1134D50A05DAA3308F0A95DA193009779F7B1117A
S1134D60B1931192CB0100C0DC01FC01672F71915A
S1134D707723E1F7329704C07C916D93708362913D
S1134D80AE17BF07C8F3089516E0C8E0D6E000E008
S1134D9005C0802FFE0188DD2196011DC930D10791
S10D4DA080E00807B1F7F894FFCF94
S1134DAA000089042000D0076E1F6E1F6E1F6E1F3D
S1134DBA6E1F6E1F6E1F6E1F3A0054656D703A2087
S1134DCA00000000000F0F311E7F098209221C63B4
S1134DDA0A340A530A3B0A470A8309630A050C047C
S1134DEA0C640A9D0AD60A1B0B380BA50B0000009B
S1134DFA000F0F311E7F098209F20F630A340A5326
S1134E0A0A3B0A470A8309630A050C6C119B155C61
S1134E1A15D60A1B0B380BA50B000000004E1B22EB
S1134E2A1B7F09EB1AC01AC81ADC1A00000000BF5B
S1134E3A1C311E521C0B1D241C3E1C301C0D0A0066
S10F4E4A6E616E00696E66006F76660093
S9030000FC
